{
  "contractName": "EdToken",
  "abi": [
    {
      "inputs": [
        {
          "internalType": "string",
          "name": "name_",
          "type": "string"
        },
        {
          "internalType": "string",
          "name": "symbol_",
          "type": "string"
        },
        {
          "internalType": "uint256",
          "name": "totalSupply_",
          "type": "uint256"
        },
        {
          "internalType": "uint256",
          "name": "priceOfToken_",
          "type": "uint256"
        }
      ],
      "payable": false,
      "stateMutability": "nonpayable",
      "type": "constructor"
    },
    {
      "anonymous": false,
      "inputs": [
        {
          "indexed": true,
          "internalType": "address",
          "name": "owner",
          "type": "address"
        },
        {
          "indexed": true,
          "internalType": "address",
          "name": "spender",
          "type": "address"
        },
        {
          "indexed": false,
          "internalType": "uint256",
          "name": "value",
          "type": "uint256"
        }
      ],
      "name": "Approval",
      "type": "event"
    },
    {
      "anonymous": false,
      "inputs": [
        {
          "indexed": true,
          "internalType": "address",
          "name": "from",
          "type": "address"
        },
        {
          "indexed": true,
          "internalType": "address",
          "name": "to",
          "type": "address"
        },
        {
          "indexed": false,
          "internalType": "uint256",
          "name": "value",
          "type": "uint256"
        }
      ],
      "name": "Transfer",
      "type": "event"
    },
    {
      "constant": true,
      "inputs": [
        {
          "internalType": "uint256",
          "name": "a",
          "type": "uint256"
        },
        {
          "internalType": "uint256",
          "name": "b",
          "type": "uint256"
        }
      ],
      "name": "safeAdd",
      "outputs": [
        {
          "internalType": "uint256",
          "name": "c",
          "type": "uint256"
        }
      ],
      "payable": false,
      "stateMutability": "pure",
      "type": "function"
    },
    {
      "constant": true,
      "inputs": [
        {
          "internalType": "uint256",
          "name": "a",
          "type": "uint256"
        },
        {
          "internalType": "uint256",
          "name": "b",
          "type": "uint256"
        }
      ],
      "name": "safeDiv",
      "outputs": [
        {
          "internalType": "uint256",
          "name": "c",
          "type": "uint256"
        }
      ],
      "payable": false,
      "stateMutability": "pure",
      "type": "function"
    },
    {
      "constant": true,
      "inputs": [
        {
          "internalType": "uint256",
          "name": "a",
          "type": "uint256"
        },
        {
          "internalType": "uint256",
          "name": "b",
          "type": "uint256"
        }
      ],
      "name": "safeMul",
      "outputs": [
        {
          "internalType": "uint256",
          "name": "c",
          "type": "uint256"
        }
      ],
      "payable": false,
      "stateMutability": "pure",
      "type": "function"
    },
    {
      "constant": true,
      "inputs": [
        {
          "internalType": "uint256",
          "name": "a",
          "type": "uint256"
        },
        {
          "internalType": "uint256",
          "name": "b",
          "type": "uint256"
        }
      ],
      "name": "safeSub",
      "outputs": [
        {
          "internalType": "uint256",
          "name": "c",
          "type": "uint256"
        }
      ],
      "payable": false,
      "stateMutability": "pure",
      "type": "function"
    },
    {
      "constant": true,
      "inputs": [],
      "name": "name",
      "outputs": [
        {
          "internalType": "string",
          "name": "",
          "type": "string"
        }
      ],
      "payable": false,
      "stateMutability": "view",
      "type": "function"
    },
    {
      "constant": true,
      "inputs": [],
      "name": "symbol",
      "outputs": [
        {
          "internalType": "string",
          "name": "",
          "type": "string"
        }
      ],
      "payable": false,
      "stateMutability": "view",
      "type": "function"
    },
    {
      "constant": true,
      "inputs": [],
      "name": "decimals",
      "outputs": [
        {
          "internalType": "uint8",
          "name": "",
          "type": "uint8"
        }
      ],
      "payable": false,
      "stateMutability": "pure",
      "type": "function"
    },
    {
      "constant": true,
      "inputs": [],
      "name": "totalSupply",
      "outputs": [
        {
          "internalType": "uint256",
          "name": "",
          "type": "uint256"
        }
      ],
      "payable": false,
      "stateMutability": "view",
      "type": "function"
    },
    {
      "constant": true,
      "inputs": [
        {
          "internalType": "address",
          "name": "account",
          "type": "address"
        }
      ],
      "name": "balanceOf",
      "outputs": [
        {
          "internalType": "uint256",
          "name": "",
          "type": "uint256"
        }
      ],
      "payable": false,
      "stateMutability": "view",
      "type": "function"
    },
    {
      "constant": false,
      "inputs": [
        {
          "internalType": "address",
          "name": "recipient",
          "type": "address"
        },
        {
          "internalType": "uint256",
          "name": "amount",
          "type": "uint256"
        }
      ],
      "name": "transfer",
      "outputs": [
        {
          "internalType": "bool",
          "name": "",
          "type": "bool"
        }
      ],
      "payable": false,
      "stateMutability": "nonpayable",
      "type": "function"
    },
    {
      "constant": true,
      "inputs": [
        {
          "internalType": "address",
          "name": "owner",
          "type": "address"
        },
        {
          "internalType": "address",
          "name": "spender",
          "type": "address"
        }
      ],
      "name": "allowance",
      "outputs": [
        {
          "internalType": "uint256",
          "name": "",
          "type": "uint256"
        }
      ],
      "payable": false,
      "stateMutability": "view",
      "type": "function"
    },
    {
      "constant": false,
      "inputs": [
        {
          "internalType": "address",
          "name": "spender",
          "type": "address"
        },
        {
          "internalType": "uint256",
          "name": "amount",
          "type": "uint256"
        }
      ],
      "name": "approve",
      "outputs": [
        {
          "internalType": "bool",
          "name": "",
          "type": "bool"
        }
      ],
      "payable": false,
      "stateMutability": "nonpayable",
      "type": "function"
    },
    {
      "constant": false,
      "inputs": [
        {
          "internalType": "address",
          "name": "sender",
          "type": "address"
        },
        {
          "internalType": "address",
          "name": "recipient",
          "type": "address"
        },
        {
          "internalType": "uint256",
          "name": "amount",
          "type": "uint256"
        }
      ],
      "name": "transferFrom",
      "outputs": [
        {
          "internalType": "bool",
          "name": "",
          "type": "bool"
        }
      ],
      "payable": false,
      "stateMutability": "nonpayable",
      "type": "function"
    },
    {
      "constant": false,
      "inputs": [
        {
          "internalType": "uint256",
          "name": "amount",
          "type": "uint256"
        }
      ],
      "name": "mint",
      "outputs": [
        {
          "internalType": "uint256",
          "name": "",
          "type": "uint256"
        }
      ],
      "payable": false,
      "stateMutability": "nonpayable",
      "type": "function"
    },
    {
      "constant": false,
      "inputs": [
        {
          "internalType": "uint256",
          "name": "amount",
          "type": "uint256"
        }
      ],
      "name": "burn",
      "outputs": [
        {
          "internalType": "uint256",
          "name": "",
          "type": "uint256"
        }
      ],
      "payable": false,
      "stateMutability": "nonpayable",
      "type": "function"
    },
    {
      "constant": false,
      "inputs": [
        {
          "internalType": "uint256",
          "name": "amount",
          "type": "uint256"
        }
      ],
      "name": "buy",
      "outputs": [
        {
          "internalType": "bool",
          "name": "",
          "type": "bool"
        }
      ],
      "payable": true,
      "stateMutability": "payable",
      "type": "function"
    },
    {
      "constant": false,
      "inputs": [
        {
          "internalType": "uint256",
          "name": "amount",
          "type": "uint256"
        },
        {
          "internalType": "address payable",
          "name": "owner",
          "type": "address"
        }
      ],
      "name": "sell",
      "outputs": [
        {
          "internalType": "bool",
          "name": "",
          "type": "bool"
        }
      ],
      "payable": false,
      "stateMutability": "nonpayable",
      "type": "function"
    },
    {
      "constant": true,
      "inputs": [],
      "name": "getContractBalance",
      "outputs": [
        {
          "internalType": "uint256",
          "name": "",
          "type": "uint256"
        }
      ],
      "payable": false,
      "stateMutability": "view",
      "type": "function"
    }
  ],
  "bytecode": "0x60806040523480156200001157600080fd5b5060405162001ca438038062001ca4833981810160405260808110156200003757600080fd5b81019080805160405193929190846401000000008211156200005857600080fd5b838201915060208201858111156200006f57600080fd5b82518660018202830111640100000000821117156200008d57600080fd5b8083526020830192505050908051906020019080838360005b83811015620000c3578082015181840152602081019050620000a6565b50505050905090810190601f168015620000f15780820380516001836020036101000a031916815260200191505b50604052602001805160405193929190846401000000008211156200011557600080fd5b838201915060208201858111156200012c57600080fd5b82518660018202830111640100000000821117156200014a57600080fd5b8083526020830192505050908051906020019080838360005b838110156200018057808201518184015260208101905062000163565b50505050905090810190601f168015620001ae5780820380516001836020036101000a031916815260200191505b5060405260200180519060200190929190805190602001909291905050508360049080519060200190620001e4929190620002d3565b508260059080519060200190620001fd929190620002d3565b508160028190555080600381905550620002226002546103e8620002b860201b60201c565b6002819055506103e86000803373ffffffffffffffffffffffffffffffffffffffff1673ffffffffffffffffffffffffffffffffffffffff1681526020019081526020016000208190555033600660006101000a81548173ffffffffffffffffffffffffffffffffffffffff021916908373ffffffffffffffffffffffffffffffffffffffff1602179055505050505062000382565b600082821115620002c857600080fd5b818303905092915050565b828054600181600116156101000203166002900490600052602060002090601f016020900481019282601f106200031657805160ff191683800117855562000347565b8280016001018555821562000347579182015b828111156200034657825182559160200191906001019062000329565b5b5090506200035691906200035a565b5090565b6200037f91905b808211156200037b57600081600090555060010162000361565b5090565b90565b61191280620003926000396000f3fe6080604052600436106101095760003560e01c806395d89b4111610095578063b5931f7c11610064578063b5931f7c146105fd578063d05c78da14610656578063d96a094a146106af578063dd62ed3e146106f5578063e6cb90131461077a57610109565b806395d89b4114610452578063a0712d68146104e2578063a293d1e814610531578063a9059cbb1461058a57610109565b8063313ce567116100dc578063313ce567146102cf5780634189a68e1461030057806342966c68146103735780636f9fb98a146103c257806370a08231146103ed57610109565b806306fdde031461010e578063095ea7b31461019e57806318160ddd1461021157806323b872dd1461023c575b600080fd5b34801561011a57600080fd5b506101236107d3565b6040518080602001828103825283818151815260200191508051906020019080838360005b83811015610163578082015181840152602081019050610148565b50505050905090810190601f1680156101905780820380516001836020036101000a031916815260200191505b509250505060405180910390f35b3480156101aa57600080fd5b506101f7600480360360408110156101c157600080fd5b81019080803573ffffffffffffffffffffffffffffffffffffffff16906020019092919080359060200190929190505050610875565b604051808215151515815260200191505060405180910390f35b34801561021d57600080fd5b5061022661088c565b6040518082815260200191505060405180910390f35b34801561024857600080fd5b506102b56004803603606081101561025f57600080fd5b81019080803573ffffffffffffffffffffffffffffffffffffffff169060200190929190803573ffffffffffffffffffffffffffffffffffffffff16906020019092919080359060200190929190505050610896565b604051808215151515815260200191505060405180910390f35b3480156102db57600080fd5b506102e46108ae565b604051808260ff1660ff16815260200191505060405180910390f35b34801561030c57600080fd5b506103596004803603604081101561032357600080fd5b8101908080359060200190929190803573ffffffffffffffffffffffffffffffffffffffff1690602001909291905050506108b6565b604051808215151515815260200191505060405180910390f35b34801561037f57600080fd5b506103ac6004803603602081101561039657600080fd5b8101908080359060200190929190505050610b00565b6040518082815260200191505060405180910390f35b3480156103ce57600080fd5b506103d7610d32565b6040518082815260200191505060405180910390f35b3480156103f957600080fd5b5061043c6004803603602081101561041057600080fd5b81019080803573ffffffffffffffffffffffffffffffffffffffff169060200190929190505050610d3a565b6040518082815260200191505060405180910390f35b34801561045e57600080fd5b50610467610d82565b6040518080602001828103825283818151815260200191508051906020019080838360005b838110156104a757808201518184015260208101905061048c565b50505050905090810190601f1680156104d45780820380516001836020036101000a031916815260200191505b509250505060405180910390f35b3480156104ee57600080fd5b5061051b6004803603602081101561050557600080fd5b8101908080359060200190929190505050610e24565b6040518082815260200191505060405180910390f35b34801561053d57600080fd5b506105746004803603604081101561055457600080fd5b810190808035906020019092919080359060200190929190505050610ee6565b6040518082815260200191505060405180910390f35b34801561059657600080fd5b506105e3600480360360408110156105ad57600080fd5b81019080803573ffffffffffffffffffffffffffffffffffffffff16906020019092919080359060200190929190505050610f00565b604051808215151515815260200191505060405180910390f35b34801561060957600080fd5b506106406004803603604081101561062057600080fd5b810190808035906020019092919080359060200190929190505050610f17565b6040518082815260200191505060405180910390f35b34801561066257600080fd5b506106996004803603604081101561067957600080fd5b810190808035906020019092919080359060200190929190505050610f37565b6040518082815260200191505060405180910390f35b6106db600480360360208110156106c557600080fd5b8101908080359060200190929190505050610f64565b604051808215151515815260200191505060405180910390f35b34801561070157600080fd5b506107646004803603604081101561071857600080fd5b81019080803573ffffffffffffffffffffffffffffffffffffffff169060200190929190803573ffffffffffffffffffffffffffffffffffffffff1690602001909291905050506110e9565b6040518082815260200191505060405180910390f35b34801561078657600080fd5b506107bd6004803603604081101561079d57600080fd5b810190808035906020019092919080359060200190929190505050611170565b6040518082815260200191505060405180910390f35b606060048054600181600116156101000203166002900480601f01602080910402602001604051908101604052809291908181526020018280546001816001161561010002031660029004801561086b5780601f106108405761010080835404028352916020019161086b565b820191906000526020600020905b81548152906001019060200180831161084e57829003601f168201915b5050505050905090565b600061088233848461118a565b6001905092915050565b6000600254905090565b60006108a3848484611418565b600190509392505050565b600080905090565b6000826000803373ffffffffffffffffffffffffffffffffffffffff1673ffffffffffffffffffffffffffffffffffffffff16815260200190815260200160002054101561094f576040517f08c379a00000000000000000000000000000000000000000000000000000000081526004018080602001828103825260238152602001806118bb6023913960400191505060405180910390fd5b60035483024710156109ac576040517f08c379a000000000000000000000000000000000000000000000000000000000815260040180806020018281038252602b8152602001806117b1602b913960400191505060405180910390fd5b8173ffffffffffffffffffffffffffffffffffffffff166108fc60035485029081150290604051600060405180830381858888f193505050501580156109f6573d6000803e3d6000fd5b5082600260008282540192505081905550610a4f6000803373ffffffffffffffffffffffffffffffffffffffff1673ffffffffffffffffffffffffffffffffffffffff1681526020019081526020016000205484610ee6565b6000803373ffffffffffffffffffffffffffffffffffffffff1673ffffffffffffffffffffffffffffffffffffffff168152602001908152602001600020819055503373ffffffffffffffffffffffffffffffffffffffff163073ffffffffffffffffffffffffffffffffffffffff167fddf252ad1be2c89b69c2b068fc378daa952ba7f163c4a11628f55a4df523b3ef856040518082815260200191505060405180910390a36001905092915050565b600080339050600073ffffffffffffffffffffffffffffffffffffffff168173ffffffffffffffffffffffffffffffffffffffff161415610b8c576040517f08c379a00000000000000000000000000000000000000000000000000000000081526004018080602001828103825260238152602001806118986023913960400191505060405180910390fd5b60008060008373ffffffffffffffffffffffffffffffffffffffff1673ffffffffffffffffffffffffffffffffffffffff16815260200190815260200160002054905083811015610c28576040517f08c379a00000000000000000000000000000000000000000000000000000000081526004018080602001828103825260248152602001806117386024913960400191505060405180910390fd5b610c328185610ee6565b6000808473ffffffffffffffffffffffffffffffffffffffff1673ffffffffffffffffffffffffffffffffffffffff1681526020019081526020016000208190555083600260008282540392505081905550600073ffffffffffffffffffffffffffffffffffffffff168273ffffffffffffffffffffffffffffffffffffffff167fddf252ad1be2c89b69c2b068fc378daa952ba7f163c4a11628f55a4df523b3ef866040518082815260200191505060405180910390a36000808373ffffffffffffffffffffffffffffffffffffffff1673ffffffffffffffffffffffffffffffffffffffff1681526020019081526020016000205492505050919050565b600047905090565b60008060008373ffffffffffffffffffffffffffffffffffffffff1673ffffffffffffffffffffffffffffffffffffffff168152602001908152602001600020549050919050565b606060058054600181600116156101000203166002900480601f016020809104026020016040519081016040528092919081815260200182805460018160011615610100020316600290048015610e1a5780601f10610def57610100808354040283529160200191610e1a565b820191906000526020600020905b815481529060010190602001808311610dfd57829003601f168201915b5050505050905090565b6000600660009054906101000a900473ffffffffffffffffffffffffffffffffffffffff1673ffffffffffffffffffffffffffffffffffffffff163373ffffffffffffffffffffffffffffffffffffffff1614610ecc576040517f08c379a000000000000000000000000000000000000000000000000000000000815260040180806020018281038252602c815260200180611835602c913960400191505060405180910390fd5b816002600082825401925050819055506002549050919050565b600082821115610ef557600080fd5b818303905092915050565b6000610f0d338484611418565b6001905092915050565b6000808211610f2557600080fd5b818381610f2e57fe5b04905092915050565b600081830290506000831480610f55575081838281610f5257fe5b04145b610f5e57600080fd5b92915050565b600060035482023414610fc2576040517f08c379a000000000000000000000000000000000000000000000000000000000815260040180806020018281038252602f815260200180611782602f913960400191505060405180910390fd5b81600254101561101d576040517f08c379a00000000000000000000000000000000000000000000000000000000081526004018080602001828103825260378152602001806118616037913960400191505060405180910390fd5b816000803373ffffffffffffffffffffffffffffffffffffffff1673ffffffffffffffffffffffffffffffffffffffff1681526020019081526020016000206000828254019250508190555061107560025483610ee6565b6002819055503073ffffffffffffffffffffffffffffffffffffffff163373ffffffffffffffffffffffffffffffffffffffff167fddf252ad1be2c89b69c2b068fc378daa952ba7f163c4a11628f55a4df523b3ef846040518082815260200191505060405180910390a360019050919050565b6000600160008473ffffffffffffffffffffffffffffffffffffffff1673ffffffffffffffffffffffffffffffffffffffff16815260200190815260200160002060008373ffffffffffffffffffffffffffffffffffffffff1673ffffffffffffffffffffffffffffffffffffffff16815260200190815260200160002054905092915050565b600081830190508281101561118457600080fd5b92915050565b600073ffffffffffffffffffffffffffffffffffffffff168373ffffffffffffffffffffffffffffffffffffffff161415611210576040517f08c379a000000000000000000000000000000000000000000000000000000000815260040180806020018281038252602681526020018061175c6026913960400191505060405180910390fd5b600073ffffffffffffffffffffffffffffffffffffffff168273ffffffffffffffffffffffffffffffffffffffff161415611296576040517f08c379a00000000000000000000000000000000000000000000000000000000081526004018080602001828103825260248152602001806118116024913960400191505060405180910390fd5b806000808573ffffffffffffffffffffffffffffffffffffffff1673ffffffffffffffffffffffffffffffffffffffff16815260200190815260200160002054101561132d576040517f08c379a00000000000000000000000000000000000000000000000000000000081526004018080602001828103825260358152602001806117dc6035913960400191505060405180910390fd5b80600160008573ffffffffffffffffffffffffffffffffffffffff1673ffffffffffffffffffffffffffffffffffffffff16815260200190815260200160002060008473ffffffffffffffffffffffffffffffffffffffff1673ffffffffffffffffffffffffffffffffffffffff168152602001908152602001600020819055508173ffffffffffffffffffffffffffffffffffffffff168373ffffffffffffffffffffffffffffffffffffffff167f8c5be1e5ebec7d5bd14f71427d1e84f3dd0314c0f7b2291e5b200ac8c7c3b925836040518082815260200191505060405180910390a3505050565b600073ffffffffffffffffffffffffffffffffffffffff168373ffffffffffffffffffffffffffffffffffffffff16141561149e576040517f08c379a00000000000000000000000000000000000000000000000000000000081526004018080602001828103825260278152602001806117116027913960400191505060405180910390fd5b600073ffffffffffffffffffffffffffffffffffffffff168273ffffffffffffffffffffffffffffffffffffffff161415611524576040517f08c379a00000000000000000000000000000000000000000000000000000000081526004018080602001828103825260258152602001806116ec6025913960400191505060405180910390fd5b60008060008573ffffffffffffffffffffffffffffffffffffffff1673ffffffffffffffffffffffffffffffffffffffff168152602001908152602001600020549050818110156115c0576040517f08c379a00000000000000000000000000000000000000000000000000000000081526004018080602001828103825260288152602001806116c46028913960400191505060405180910390fd5b6115ca8183610ee6565b6000808673ffffffffffffffffffffffffffffffffffffffff1673ffffffffffffffffffffffffffffffffffffffff16815260200190815260200160002081905550816000808573ffffffffffffffffffffffffffffffffffffffff1673ffffffffffffffffffffffffffffffffffffffff168152602001908152602001600020600082825401925050819055508273ffffffffffffffffffffffffffffffffffffffff168473ffffffffffffffffffffffffffffffffffffffff167fddf252ad1be2c89b69c2b068fc378daa952ba7f163c4a11628f55a4df523b3ef846040518082815260200191505060405180910390a35050505056fe4564546f6b656e3a207472616e7366657220616d6f756e7420657863656564732062616c616e63654564546f6b656e3a207472616e7366657220746f20746865207a65726f20616464726573734564546f6b656e3a207472616e736665722066726f6d20746865207a65726f20616464726573734564546f6b656e3a206275726e20616d6f756e7420657863656564732062616c616e63654564546f6b656e3a20617070726f76652066726f6d20746865207a65726f20616464726573734564546f6b656e3a20496e73756666696369656e74206f722045786365737320737570706c79206f662066756e64734564546f6b656e3a20496e73756666696369656e742066756e647320696e2074686520636f6e74726163744564546f6b656e3a20617070726f766520616d6f756e74206c657373207468616e207468652063757272656e742062616c616e63654564546f6b656e3a20617070726f766520746f20746865207a65726f20616464726573734564546f6b656e3a206f6e6c7920746865206f776e65722063616e206d696e74206e657720746f6b656e732e4564546f6b656e3a20417661696c61626c6520746f6b656e73206c657373207468616e2074686520726571756972656420616d6f756e744564546f6b656e3a206275726e2066726f6d20746865207a65726f20616464726573734564546f6b656e3a20496e73756666696369656e7420746f6b656e2062616c616e6365a265627a7a723158208f613c916cfb04d627c0cab8721916bead4725e188cfddcdda53b2078f04bbe364736f6c63430005100032",
  "source": "// SPDX-License-Identifier: GPL-3.0\r\npragma solidity ^0.5.16;\r\n//Safe Math Interface\r\ncontract SafeMath {\r\n    function safeAdd(uint a, uint b) public pure returns (uint c) {\r\n    c = a + b;\r\n    require(c >= a);\r\n\r\n}\r\nfunction safeSub(uint a, uint b) public pure returns (uint c) {\r\n    require(b <= a);\r\n    c = a - b;\r\n}\r\nfunction safeMul(uint a, uint b) public pure returns (uint c) {\r\n    c = a * b;\r\n    require(a == 0 || c / a == b);}\r\n    function safeDiv(uint a, uint b) public pure returns (uint c) {\r\n    require(b > 0);\r\n    c = a / b;\r\n    }\r\n}\r\n//Token Contract\r\ncontract EdToken is SafeMath {\r\n    //to store the balance of each address\r\n    mapping(address => uint256) private _balances;\r\n    //to store the amount allows to be withdrawn from one account by another\r\n    mapping(address => mapping(address => uint256)) private _allowances;\r\n    uint256 private _totalSupply; //total supply of tokens\r\n    uint256 private _priceOfToken; //price of one token in ether\r\n    string private _name; // name of the token\r\n    string private _symbol; // symbol of the token\r\n    address private _deployer; // deployer of the token gets access to mint new tokens\r\n    event Transfer(address indexed from, address indexed to, uint256 value);\r\n    event Approval(address indexed owner, address indexed spender, uint256 value);\r\n    constructor(string memory name_, string memory symbol_, uint256 totalSupply_, uint256\r\n    priceOfToken_) public \r\n    {\r\n        _name = name_;\r\n        _symbol = symbol_;\r\n        _totalSupply = totalSupply_;\r\n        _priceOfToken = priceOfToken_;\r\n        // deduct 1000 tokens from total token supply\r\n        _totalSupply=safeSub(_totalSupply,1000);\r\n        // unchecked{\r\n        // _totalSupply -= 1000;\r\n        // }\r\n        // assigning 1000 tokens to the contract owner\r\n        _balances[msg.sender] = 1000;\r\n        _deployer = msg.sender;\r\n    }\r\n// returns the name of the token\r\nfunction name() public view returns (string memory) {\r\n    return _name;\r\n}\r\n// returns the symbol of the token\r\nfunction symbol() public view returns (string memory) {\r\n    return _symbol;\r\n}\r\n// returns the number of decimals accepted in the token value\r\nfunction decimals() public pure returns (uint8) {\r\n    return 0;\r\n}\r\n// returns the total supply of the tokens\r\nfunction totalSupply() public view returns (uint256) {\r\n    return _totalSupply;\r\n}\r\n// returns the balance of the specified account\r\nfunction balanceOf(address account) public view returns (uint256) {\r\n    return _balances[account];\r\n}\r\n// function to transfer amount number of tokens from the caller to the recipient\r\nfunction transfer(address recipient, uint256 amount) public returns (bool) {\r\n    _transfer(msg.sender, recipient, amount);\r\n    return true;\r\n}\r\n// returns the amount of the tokens spender can spend from the owner's account\r\nfunction allowance(address owner, address spender) public view returns (uint256) {\r\n    return _allowances[owner][spender];\r\n}\r\n// function to approve amount number of tokens to be spend by the spender from the caller's account\r\nfunction approve(address spender, uint256 amount) public returns (bool) {\r\n    _approve(msg.sender,spender,amount);\r\n    return true;\r\n}\r\n// function to transfer amount number of tokens from the sender's account to recipient's account\r\nfunction transferFrom(address sender,address recipient,uint256 amount) public returns (bool) {\r\n    // uint256 currentAllowance = _allowances[sender][recipient];\r\n    // require(currentAllowance >= amount, \"EdToken: transfer amount exceeds allowance \");\r\n    _transfer(sender, recipient, amount);\r\n    // uint256 approvAmt = safeSub(currentAllowance,amount);\r\n    // _approve(sender, recipient, approvAmt);\r\n    // unchecked {\r\n    // _approve(sender, recipient, currentAllowance - amount);\r\n    // }\r\n    return true;\r\n}\r\n// function to mint new tokens\r\nfunction mint(uint256 amount) public returns (uint256) {\r\n    require(msg.sender == _deployer, \"EdToken: only the owner can mint new tokens.\");\r\n    _totalSupply += amount;\r\n    return _totalSupply;\r\n}\r\n\r\n// function to burn the tokens from a specific account to create inflation\r\nfunction burn(uint256 amount) public returns (uint256) {\r\n    address account = msg.sender;\r\n    require(account != address(0), \"EdToken: burn from the zero address\");\r\n    uint256 accountBalance = _balances[account];\r\n    require(accountBalance >= amount, \"EdToken: burn amount exceeds balance\");\r\n    _balances[account] = safeSub(accountBalance,amount);\r\n    // unchecked {\r\n    // _balances[account] = accountBalance - amount;\r\n    // }\r\n    _totalSupply -= amount;\r\n    emit Transfer(account, address(0), amount);\r\n    return _balances[account];\r\n}\r\n// function to buy new tokens by spending ether\r\nfunction buy(uint256 amount) payable public returns (bool){\r\n    require(msg.value == amount*_priceOfToken , \"EdToken: Insufficient or Excess supply of funds\");\r\n    require(_totalSupply >= amount,\"EdToken: Available tokens less than the required amount\");\r\n    _balances[msg.sender] += amount;\r\n    _totalSupply=safeSub(_totalSupply,amount);\r\n    emit Transfer(msg.sender, address(this), amount);\r\n    return true;\r\n}\r\n// function to sell the tokens and transfer ether back to the owner\r\nfunction sell(uint256 amount,address payable owner) public returns (bool){\r\n    require(_balances[msg.sender] >= amount , \"EdToken: Insufficient token balance\");\r\n    require(address(this).balance >= amount*_priceOfToken,\"EdToken: Insufficient funds in the contract\");\r\n    owner.transfer(amount*_priceOfToken);\r\n    _totalSupply += amount;\r\n    _balances[msg.sender] =safeSub(_balances[msg.sender],amount);\r\n    emit Transfer(address(this), msg.sender, amount);\r\n    return true;\r\n}\r\n// returns the total balance of the contract account in terms of ether\r\nfunction getContractBalance() public view returns(uint256){\r\n    return address(this).balance;\r\n}\r\n// function to transfer amount number of tokens from sender to the recipient\r\nfunction _transfer(address sender,address recipient,uint256 amount) internal {\r\n    require(sender != address(0), \"EdToken: transfer from the zero address\");\r\n    require(recipient != address(0), \"EdToken: transfer to the zero address\");\r\n    uint256 senderBalance = _balances[sender];\r\n    require(senderBalance >= amount, \"EdToken: transfer amount exceeds balance\");\r\n    _balances[sender]=safeSub(senderBalance,amount);\r\n    _balances[recipient] += amount;\r\n\r\n    emit Transfer(sender, recipient, amount);\r\n}\r\n// function to approve spender to spend amount number of tokens from the owner's account\r\nfunction _approve(address owner,address spender,uint256 amount) internal{\r\n    require(owner != address(0), \"EdToken: approve from the zero address\");\r\n    require(spender != address(0), \"EdToken: approve to the zero address\");\r\n    require(_balances[owner] >= amount, \"EdToken: approve amount less than the current balance\");\r\n    _allowances[owner][spender] = amount;\r\n    emit Approval(owner, spender, amount);\r\n}\r\n}",
  "sourcePath": "D:\\SEM_8\\FYP\\excelED\\contracts\\edToken.sol",
  "compiler": {
    "name": "solc",
    "version": "0.5.16+commit.9c3226ce.Emscripten.clang"
  },
  "schemaVersion": "3.4.4",
  "updatedAt": "2022-02-23T13:47:20.478Z",
  "devdoc": {
    "methods": {}
  },
  "userdoc": {
    "methods": {}
  }
}