{
  "contractName": "StudentRegister",
  "abi": [
    {
      "constant": true,
      "inputs": [],
      "name": "courseName",
      "outputs": [
        {
          "internalType": "string",
          "name": "",
          "type": "string"
        }
      ],
      "payable": false,
      "stateMutability": "view",
      "type": "function"
    },
    {
      "constant": true,
      "inputs": [
        {
          "internalType": "string",
          "name": "",
          "type": "string"
        }
      ],
      "name": "courses",
      "outputs": [
        {
          "internalType": "string",
          "name": "courseID",
          "type": "string"
        },
        {
          "internalType": "address",
          "name": "teacherWA",
          "type": "address"
        },
        {
          "internalType": "uint256",
          "name": "studentCount",
          "type": "uint256"
        }
      ],
      "payable": false,
      "stateMutability": "view",
      "type": "function"
    },
    {
      "constant": true,
      "inputs": [],
      "name": "owner",
      "outputs": [
        {
          "internalType": "address",
          "name": "",
          "type": "address"
        }
      ],
      "payable": false,
      "stateMutability": "view",
      "type": "function"
    },
    {
      "constant": true,
      "inputs": [
        {
          "internalType": "address",
          "name": "",
          "type": "address"
        }
      ],
      "name": "students",
      "outputs": [
        {
          "internalType": "address",
          "name": "studentWA",
          "type": "address"
        },
        {
          "internalType": "string",
          "name": "studentID",
          "type": "string"
        }
      ],
      "payable": false,
      "stateMutability": "view",
      "type": "function"
    },
    {
      "constant": true,
      "inputs": [
        {
          "internalType": "address",
          "name": "",
          "type": "address"
        }
      ],
      "name": "teachers",
      "outputs": [
        {
          "internalType": "address",
          "name": "teacherWA",
          "type": "address"
        }
      ],
      "payable": false,
      "stateMutability": "view",
      "type": "function"
    },
    {
      "constant": false,
      "inputs": [
        {
          "internalType": "address",
          "name": "studentWA",
          "type": "address"
        },
        {
          "internalType": "string",
          "name": "studentID",
          "type": "string"
        }
      ],
      "name": "registerStudent",
      "outputs": [],
      "payable": false,
      "stateMutability": "nonpayable",
      "type": "function"
    },
    {
      "constant": false,
      "inputs": [
        {
          "internalType": "address",
          "name": "teacherWA",
          "type": "address"
        }
      ],
      "name": "registerTeacher",
      "outputs": [],
      "payable": false,
      "stateMutability": "nonpayable",
      "type": "function"
    },
    {
      "constant": false,
      "inputs": [
        {
          "internalType": "string",
          "name": "courseID",
          "type": "string"
        },
        {
          "internalType": "address",
          "name": "teacherWA",
          "type": "address"
        }
      ],
      "name": "createCourse",
      "outputs": [],
      "payable": false,
      "stateMutability": "nonpayable",
      "type": "function"
    },
    {
      "constant": false,
      "inputs": [
        {
          "internalType": "address",
          "name": "studentWA",
          "type": "address"
        },
        {
          "internalType": "string",
          "name": "courseID",
          "type": "string"
        }
      ],
      "name": "joinCourse",
      "outputs": [],
      "payable": false,
      "stateMutability": "nonpayable",
      "type": "function"
    },
    {
      "constant": true,
      "inputs": [
        {
          "internalType": "address",
          "name": "studentWA",
          "type": "address"
        },
        {
          "internalType": "string",
          "name": "courseID",
          "type": "string"
        }
      ],
      "name": "getStudentMarks",
      "outputs": [
        {
          "internalType": "uint256[]",
          "name": "",
          "type": "uint256[]"
        },
        {
          "internalType": "uint256[]",
          "name": "",
          "type": "uint256[]"
        },
        {
          "internalType": "uint256",
          "name": "",
          "type": "uint256"
        }
      ],
      "payable": false,
      "stateMutability": "view",
      "type": "function"
    },
    {
      "constant": false,
      "inputs": [
        {
          "internalType": "address[]",
          "name": "studentWA",
          "type": "address[]"
        },
        {
          "internalType": "string",
          "name": "courseID",
          "type": "string"
        },
        {
          "internalType": "uint256[]",
          "name": "mrks",
          "type": "uint256[]"
        }
      ],
      "name": "inputMrks",
      "outputs": [],
      "payable": false,
      "stateMutability": "nonpayable",
      "type": "function"
    },
    {
      "constant": true,
      "inputs": [
        {
          "internalType": "address",
          "name": "studentWA",
          "type": "address"
        }
      ],
      "name": "getStudentCourses",
      "outputs": [
        {
          "internalType": "string[]",
          "name": "",
          "type": "string[]"
        }
      ],
      "payable": false,
      "stateMutability": "view",
      "type": "function"
    },
    {
      "constant": true,
      "inputs": [
        {
          "internalType": "address",
          "name": "teacherWA",
          "type": "address"
        }
      ],
      "name": "getTeacherCourse",
      "outputs": [
        {
          "internalType": "string[]",
          "name": "",
          "type": "string[]"
        }
      ],
      "payable": false,
      "stateMutability": "view",
      "type": "function"
    }
  ],
  "bytecode": "0x608060405260405180602001604052806000815250600690805190602001906200002b92919062000040565b503480156200003957600080fd5b50620000ef565b828054600181600116156101000203166002900490600052602060002090601f016020900481019282601f106200008357805160ff1916838001178555620000b4565b82800160010185558215620000b4579182015b82811115620000b357825182559160200191906001019062000096565b5b509050620000c39190620000c7565b5090565b620000ec91905b80821115620000e8576000816000905550600101620000ce565b5090565b90565b611e6980620000ff6000396000f3fe608060405234801561001057600080fd5b50600436106100cf5760003560e01c8063a6c807a91161008c578063d40761e411610066578063d40761e414610215578063d9d5878114610245578063f0a47f7814610261578063feb6562b14610291576100cf565b8063a6c807a9146101ac578063ada679ec146101dd578063c6a975d9146101f9576100cf565b806316598342146100d4578063327cc30c146100f05780635d1c6dce146101225780637cb45881146101545780638da5cb5b146101705780639553de4e1461018e575b600080fd5b6100ee60048036036100e991908101906116a2565b6102c1565b005b61010a600480360361010591908101906116a2565b610365565b60405161011993929190611b1a565b60405180910390f35b61013c6004803603610137919081019061178d565b6105e1565b60405161014b93929190611b81565b60405180910390f35b61016e60048036036101699190810190611679565b6106d9565b005b610178610763565b6040516101859190611aad565b60405180910390f35b610196610788565b6040516101a39190611b5f565b60405180910390f35b6101c660048036036101c19190810190611679565b610826565b6040516101d4929190611ac8565b60405180910390f35b6101f760048036036101f291908101906117ce565b610902565b005b610213600480360361020e91908101906116f6565b610aac565b005b61022f600480360361022a9190810190611679565b610bf6565b60405161023c9190611af8565b60405180910390f35b61025f600480360361025a91908101906116a2565b610d77565b005b61027b60048036036102769190810190611679565b61102c565b6040516102889190611aad565b60405180910390f35b6102ab60048036036102a69190810190611679565b61106a565b6040516102b89190611af8565b60405180910390f35b6000600160008473ffffffffffffffffffffffffffffffffffffffff1673ffffffffffffffffffffffffffffffffffffffff1681526020019081526020016000209050828160000160006101000a81548173ffffffffffffffffffffffffffffffffffffffff021916908373ffffffffffffffffffffffffffffffffffffffff1602179055508181600101908051906020019061035f9291906111eb565b50505050565b606080600080600160008773ffffffffffffffffffffffffffffffffffffffff1673ffffffffffffffffffffffffffffffffffffffff1681526020019081526020016000209050600080905060008090505b826002018054905081101561041e5786805190602001208360020182815481106103dd57fe5b90600052602060002090600402016000016040516103fb9190611a7f565b604051809103902014156104115780915061041e565b80806001019150506103b7565b50600082600301828154811061043057fe5b9060005260206000209060030201600001805490509050600083600301838154811061045857fe5b90600052602060002090600302016001018054905090506060826040519080825280602002602001820160405280156104a05781602001602082028038833980820191505090505b5090506060826040519080825280602002602001820160405280156104d45781602001602082028038833980820191505090505b50905060008090505b84811015610540578660030186815481106104f457fe5b9060005260206000209060030201600001818154811061051057fe5b906000526020600020015483828151811061052757fe5b60200260200101818152505080806001019150506104dd565b5060008090505b838110156105aa5786600301868154811061055e57fe5b9060005260206000209060030201600101818154811061057a57fe5b906000526020600020015482828151811061059157fe5b6020026020010181815250508080600101915050610547565b5081818760030187815481106105bc57fe5b9060005260206000209060030201600201549850985098505050505050509250925092565b600381805160208101820180518482526020830160208501208183528095505050505050600091509050806000018054600181600116156101000203166002900480601f0160208091040260200160405190810160405280929190818152602001828054600181600116156101000203166002900480156106a35780601f10610678576101008083540402835291602001916106a3565b820191906000526020600020905b81548152906001019060200180831161068657829003601f168201915b5050505050908060010160009054906101000a900473ffffffffffffffffffffffffffffffffffffffff16908060030154905083565b6000600260008373ffffffffffffffffffffffffffffffffffffffff1673ffffffffffffffffffffffffffffffffffffffff1681526020019081526020016000209050818160000160006101000a81548173ffffffffffffffffffffffffffffffffffffffff021916908373ffffffffffffffffffffffffffffffffffffffff1602179055505050565b6000809054906101000a900473ffffffffffffffffffffffffffffffffffffffff1681565b60068054600181600116156101000203166002900480601f01602080910402602001604051908101604052809291908181526020018280546001816001161561010002031660029004801561081e5780601f106107f35761010080835404028352916020019161081e565b820191906000526020600020905b81548152906001019060200180831161080157829003601f168201915b505050505081565b60016020528060005260406000206000915090508060000160009054906101000a900473ffffffffffffffffffffffffffffffffffffffff1690806001018054600181600116156101000203166002900480601f0160208091040260200160405190810160405280929190818152602001828054600181600116156101000203166002900480156108f85780601f106108cd576101008083540402835291602001916108f8565b820191906000526020600020905b8154815290600101906020018083116108db57829003601f168201915b5050505050905082565b60006003836040516109149190611a96565b908152602001604051809103902090508281600001908051906020019061093c9291906111eb565b50818160010160006101000a81548173ffffffffffffffffffffffffffffffffffffffff021916908373ffffffffffffffffffffffffffffffffffffffff1602179055506000600260008473ffffffffffffffffffffffffffffffffffffffff1673ffffffffffffffffffffffffffffffffffffffff168152602001908152602001600020905080600101829080600181540180825580915050906001820390600052602060002090600402016000909192909190915060008201816000019080546001816001161561010002031660029004610a1a92919061126b565b506001820160009054906101000a900473ffffffffffffffffffffffffffffffffffffffff168160010160006101000a81548173ffffffffffffffffffffffffffffffffffffffff021916908373ffffffffffffffffffffffffffffffffffffffff1602179055506002820181600201908054610a989291906112f2565b506003820154816003015550505050505050565b600080905060008090505b8451811015610bef57600060016000878481518110610ad257fe5b602002602001015173ffffffffffffffffffffffffffffffffffffffff1673ffffffffffffffffffffffffffffffffffffffff168152602001908152602001600020905060008090505b8160020180549050811015610b83578580519060200120826002018281548110610b4257fe5b9060005260206000209060040201600001604051610b609190611a7f565b60405180910390201415610b7657809350610b83565b8080600101915050610b1c565b50806003018381548110610b9357fe5b9060005260206000209060030201600001848381518110610bb057fe5b60200260200101519080600181540180825580915050906001820390600052602060002001600090919290919091505550508080600101915050610ab7565b5050505050565b60606000600160008473ffffffffffffffffffffffffffffffffffffffff1673ffffffffffffffffffffffffffffffffffffffff1681526020019081526020016000209050600081600201805490509050606081604051908082528060200260200182016040528015610c7d57816020015b6060815260200190600190039081610c685790505b50905060008090505b82811015610d6b57836002018181548110610c9d57fe5b90600052602060002090600402016000018054600181600116156101000203166002900480601f016020809104026020016040519081016040528092919081815260200182805460018160011615610100020316600290048015610d425780601f10610d1757610100808354040283529160200191610d42565b820191906000526020600020905b815481529060010190602001808311610d2557829003601f168201915b5050505050828281518110610d5357fe5b60200260200101819052508080600101915050610c86565b50809350505050919050565b6000600382604051610d899190611a96565b90815260200160405180910390209050806002018390806001815401808255809150509060018203906000526020600020016000909192909190916101000a81548173ffffffffffffffffffffffffffffffffffffffff021916908373ffffffffffffffffffffffffffffffffffffffff1602179055505080600301600081548092919060010191905055506000600160008573ffffffffffffffffffffffffffffffffffffffff1673ffffffffffffffffffffffffffffffffffffffff168152602001908152602001600020905080600201829080600181540180825580915050906001820390600052602060002090600402016000909192909190915060008201816000019080546001816001161561010002031660029004610eaf92919061126b565b506001820160009054906101000a900473ffffffffffffffffffffffffffffffffffffffff168160010160006101000a81548173ffffffffffffffffffffffffffffffffffffffff021916908373ffffffffffffffffffffffffffffffffffffffff1602179055506002820181600201908054610f2d9291906112f2565b506003820154816003015550505080600201600081548110610f4b57fe5b906000526020600020906004020160000160069080546001816001161561010002031660029004610f7d929190611344565b506060806000809050610f8e6113cb565b60405180606001604052808581526020018481526020018381525090508460030181908060018154018082558091505090600182039060005260206000209060030201600090919290919091506000820151816000019080519060200190610ff79291906113ec565b5060208201518160010190805190602001906110149291906113ec565b50604082015181600201555050505050505050505050565b60026020528060005260406000206000915090508060000160009054906101000a900473ffffffffffffffffffffffffffffffffffffffff16905081565b60606000600260008473ffffffffffffffffffffffffffffffffffffffff1673ffffffffffffffffffffffffffffffffffffffff16815260200190815260200160002090506000816001018054905090506060816040519080825280602002602001820160405280156110f157816020015b60608152602001906001900390816110dc5790505b50905060008090505b828110156111df5783600101818154811061111157fe5b90600052602060002090600402016000018054600181600116156101000203166002900480601f0160208091040260200160405190810160405280929190818152602001828054600181600116156101000203166002900480156111b65780601f1061118b576101008083540402835291602001916111b6565b820191906000526020600020905b81548152906001019060200180831161119957829003601f168201915b50505050508282815181106111c757fe5b602002602001018190525080806001019150506110fa565b50809350505050919050565b828054600181600116156101000203166002900490600052602060002090601f016020900481019282601f1061122c57805160ff191683800117855561125a565b8280016001018555821561125a579182015b8281111561125957825182559160200191906001019061123e565b5b5090506112679190611439565b5090565b828054600181600116156101000203166002900490600052602060002090601f016020900481019282601f106112a457805485556112e1565b828001600101855582156112e157600052602060002091601f016020900482015b828111156112e05782548255916001019190600101906112c5565b5b5090506112ee9190611439565b5090565b8280548282559060005260206000209081019282156113335760005260206000209182015b82811115611332578254825591600101919060010190611317565b5b509050611340919061145e565b5090565b828054600181600116156101000203166002900490600052602060002090601f016020900481019282601f1061137d57805485556113ba565b828001600101855582156113ba57600052602060002091601f016020900482015b828111156113b957825482559160010191906001019061139e565b5b5090506113c79190611439565b5090565b60405180606001604052806060815260200160608152602001600081525090565b828054828255906000526020600020908101928215611428579160200282015b8281111561142757825182559160200191906001019061140c565b5b5090506114359190611439565b5090565b61145b91905b8082111561145757600081600090555060010161143f565b5090565b90565b61149e91905b8082111561149a57600081816101000a81549073ffffffffffffffffffffffffffffffffffffffff021916905550600101611464565b5090565b90565b6000813590506114b081611df8565b92915050565b600082601f8301126114c757600080fd5b81356114da6114d582611bec565b611bbf565b915081818352602084019350602081019050838560208402820111156114ff57600080fd5b60005b8381101561152f578161151588826114a1565b845260208401935060208301925050600181019050611502565b5050505092915050565b600082601f83011261154a57600080fd5b813561155d61155882611c14565b611bbf565b9150818183526020840193506020810190508385602084028201111561158257600080fd5b60005b838110156115b257816115988882611664565b845260208401935060208301925050600181019050611585565b5050505092915050565b600082601f8301126115cd57600080fd5b81356115e06115db82611c3c565b611bbf565b915080825260208301602083018583830111156115fc57600080fd5b611607838284611da5565b50505092915050565b600082601f83011261162157600080fd5b813561163461162f82611c68565b611bbf565b9150808252602083016020830185838301111561165057600080fd5b61165b838284611da5565b50505092915050565b60008135905061167381611e0f565b92915050565b60006020828403121561168b57600080fd5b6000611699848285016114a1565b91505092915050565b600080604083850312156116b557600080fd5b60006116c3858286016114a1565b925050602083013567ffffffffffffffff8111156116e057600080fd5b6116ec85828601611610565b9150509250929050565b60008060006060848603121561170b57600080fd5b600084013567ffffffffffffffff81111561172557600080fd5b611731868287016114b6565b935050602084013567ffffffffffffffff81111561174e57600080fd5b61175a86828701611610565b925050604084013567ffffffffffffffff81111561177757600080fd5b61178386828701611539565b9150509250925092565b60006020828403121561179f57600080fd5b600082013567ffffffffffffffff8111156117b957600080fd5b6117c5848285016115bc565b91505092915050565b600080604083850312156117e157600080fd5b600083013567ffffffffffffffff8111156117fb57600080fd5b61180785828601611610565b9250506020611818858286016114a1565b9150509250929050565b600061182e83836119ef565b905092915050565b60006118428383611a61565b60208301905092915050565b61185781611d69565b82525050565b600061186882611cc9565b6118728185611d0f565b93508360208202850161188485611c94565b8060005b858110156118c057848403895281516118a18582611822565b94506118ac83611cf5565b925060208a01995050600181019050611888565b50829750879550505050505092915050565b60006118dd82611cd4565b6118e78185611d20565b93506118f283611ca4565b8060005b8381101561192357815161190a8882611836565b975061191583611d02565b9250506001810190506118f6565b5085935050505092915050565b60008154600181166000811461194d5760018114611972576119b6565b607f600283041661195e8187611d31565b955060ff19831686528086019350506119b6565b600282046119808187611d31565b955061198b85611cb4565b60005b828110156119ad5781548189015260018201915060208101905061198e565b82880195505050505b505092915050565b60006119c982611cea565b6119d38185611d5e565b93506119e3818560208601611db4565b80840191505092915050565b60006119fa82611cdf565b611a048185611d3c565b9350611a14818560208601611db4565b611a1d81611de7565b840191505092915050565b6000611a3382611cdf565b611a3d8185611d4d565b9350611a4d818560208601611db4565b611a5681611de7565b840191505092915050565b611a6a81611d9b565b82525050565b611a7981611d9b565b82525050565b6000611a8b8284611930565b915081905092915050565b6000611aa282846119be565b915081905092915050565b6000602082019050611ac2600083018461184e565b92915050565b6000604082019050611add600083018561184e565b8181036020830152611aef8184611a28565b90509392505050565b60006020820190508181036000830152611b12818461185d565b905092915050565b60006060820190508181036000830152611b3481866118d2565b90508181036020830152611b4881856118d2565b9050611b576040830184611a70565b949350505050565b60006020820190508181036000830152611b798184611a28565b905092915050565b60006060820190508181036000830152611b9b8186611a28565b9050611baa602083018561184e565b611bb76040830184611a70565b949350505050565b6000604051905081810181811067ffffffffffffffff82111715611be257600080fd5b8060405250919050565b600067ffffffffffffffff821115611c0357600080fd5b602082029050602081019050919050565b600067ffffffffffffffff821115611c2b57600080fd5b602082029050602081019050919050565b600067ffffffffffffffff821115611c5357600080fd5b601f19601f8301169050602081019050919050565b600067ffffffffffffffff821115611c7f57600080fd5b601f19601f8301169050602081019050919050565b6000819050602082019050919050565b6000819050602082019050919050565b60008190508160005260206000209050919050565b600081519050919050565b600081519050919050565b600081519050919050565b600081519050919050565b6000602082019050919050565b6000602082019050919050565b600082825260208201905092915050565b600082825260208201905092915050565b600081905092915050565b600082825260208201905092915050565b600082825260208201905092915050565b600081905092915050565b6000611d7482611d7b565b9050919050565b600073ffffffffffffffffffffffffffffffffffffffff82169050919050565b6000819050919050565b82818337600083830152505050565b60005b83811015611dd2578082015181840152602081019050611db7565b83811115611de1576000848401525b50505050565b6000601f19601f8301169050919050565b611e0181611d69565b8114611e0c57600080fd5b50565b611e1881611d9b565b8114611e2357600080fd5b5056fea365627a7a723158201ee74ba8fc8302f792f8c08ca26be9f1ee4744d251e37e75f694df4f6eb0cee16c6578706572696d656e74616cf564736f6c63430005100040",
  "source": "pragma solidity ^0.5.16;\r\npragma experimental ABIEncoderV2;\r\n\r\n\r\n/**\r\n * @title StudentRegister\r\n * @notice StudentRegister contract is a contract to register the marks of a student and calculates his percentage\r\n*/\r\n\r\ncontract StudentRegister{\r\n\r\n/**\r\n * @dev owner is a state variable\r\n */\r\n    address public owner;\r\n  \r\n  /**\r\n   * @dev mapping address as key to struct student with mapping name students\r\n   */\r\n    \r\n    /**\r\n     * @dev assigning the contract deployer as the owner\r\n     */\r\n     \r\n    /**\r\n     * @dev a modifier onlyOwner is created to limit the access to function register to contract deployer\r\n     */\r\n   \r\n    struct course{\r\n        string courseID;\r\n        address teacherWA;\r\n        address[] students;\r\n        uint studentCount;\r\n        \r\n    }\r\n    struct mark{\r\n        uint[] quiz;\r\n        uint[] assignment;\r\n        uint attendance;\r\n\r\n\r\n    }\r\n    /**\r\n     * @dev a struct student is defined\r\n     */\r\n    struct student{\r\n        \r\n        address studentWA;\r\n        string studentID;\r\n        course[] student_courses;\r\n        mark[] student_marks;\r\n        \r\n        \r\n    }\r\n\r\n    struct teacher{\r\n        address teacherWA;\r\n        course[] teacher_courses;\r\n        \r\n\r\n\r\n    }\r\n    // global mapping \r\n    mapping (address=>student) public students;\r\n    mapping(address=>teacher) public teachers;\r\n    mapping(string=>course) public  courses;\r\n    \r\n    uint numStudents;\r\n    //only for registering a new student\r\n    mapping(uint=>student) newStudents;    \r\n    \r\n    function registerStudent(address studentWA,string memory studentID) public  {\r\n       student storage s= students[studentWA];\r\n       s.studentWA=studentWA;\r\n       s.studentID=studentID;\r\n    }\r\n    function registerTeacher(address teacherWA) public  {\r\n    teacher storage s= teachers[teacherWA];\r\n       s.teacherWA=teacherWA;\r\n    \r\n    \r\n        \r\n        }\r\n\r\n    function createCourse(string memory courseID,address teacherWA) public  {\r\n\r\n\r\n        course storage c= courses[courseID];\r\n        c.courseID=courseID;\r\n        c.teacherWA=teacherWA;\r\n        teacher storage t=teachers[teacherWA];\r\n        t.teacher_courses.push(c);\r\n        // //generate and return invite code \r\n\r\n    }\r\n    string public courseName = \"\";\r\n    function joinCourse(address studentWA,string memory courseID) public{\r\n        course storage c= courses[courseID];\r\n        c.students.push(studentWA);\r\n        c.studentCount++;\r\n        student storage s= students[studentWA];\r\n        s.student_courses.push(c);\r\n        courseName=s.student_courses[0].courseID;\r\n        uint[] memory myquiz;\r\n        uint[] memory assign;\r\n        uint attendance = 0;\r\n        mark memory myMark = mark(myquiz,assign,attendance);\r\n        s.student_marks.push(myMark);\r\n        \r\n\r\n\r\n    } \r\n    \r\n    \r\n    \r\n     \r\n    function getStudentMarks(address studentWA, string memory courseID) public view returns(uint[] memory,uint[] memory,uint) {\r\n        \r\n        student storage s = students[studentWA];        \r\n        uint index = 0;\r\n        for(uint i = 0;i<s.student_courses.length;i++ )\r\n        {\r\n\r\n            if(keccak256(bytes(s.student_courses[i].courseID)) == keccak256(bytes(courseID))) {\r\n               index = i;\r\n               \r\n               break;\r\n           }\r\n\r\n        }\r\n        uint quizLen= s.student_marks[index].quiz.length;\r\n        uint assignLen = s.student_marks[index].assignment.length;\r\n        uint[] memory quizMrk = new uint[](quizLen);\r\n        uint[] memory assignMrk = new uint[](assignLen);\r\n\r\n        for(uint i = 0; i<quizLen;i++){\r\n            quizMrk[i]=s.student_marks[index].quiz[i];  \r\n        }\r\n\r\n        for(uint i = 0; i<assignLen;i++){\r\n            assignMrk[i]=s.student_marks[index].assignment[i];  \r\n        }\r\n\r\n        \r\n        return(quizMrk ,assignMrk , s.student_marks[index].attendance);\r\n    }\r\n    \r\n    function inputMrks(address[] memory studentWA, string memory courseID,uint[] memory mrks) public{\r\n        \r\n        \r\n        uint indexi = 0;\r\n        for(uint j=0;j<studentWA.length;j++){\r\n            student storage s = students[studentWA[j]];\r\n            for(uint i = 0;i<s.student_courses.length;i++ )\r\n            {\r\n                if(keccak256(bytes(s.student_courses[i].courseID)) == keccak256(bytes(courseID))) {\r\n                    indexi = i;\r\n                    break;\r\n                }\r\n            }\r\n\r\n            s.student_marks[indexi].quiz.push(mrks[j]);\r\n            \r\n        \r\n        }\r\n        \r\n\r\n        \r\n\r\n    }\r\n\r\n    function getStudentCourses(address studentWA) public view returns(string[] memory){\r\n        \r\n        student storage s = students[studentWA];\r\n        uint numOfCOurse = s.student_courses.length;\r\n        string[] memory coursesOfStudent = new string[](numOfCOurse);\r\n\r\n        for(uint i = 0;i<numOfCOurse;i++ ){\r\n          coursesOfStudent[i] = s.student_courses[i].courseID;\r\n              \r\n        }\r\n\r\n        return (coursesOfStudent);\r\n\r\n    }\r\n\r\n    function getTeacherCourse(address teacherWA) public view returns(string[] memory){\r\n\r\n        teacher storage t = teachers[teacherWA];\r\n        uint numOfCOurse = t.teacher_courses.length;\r\n        string[] memory coursesOfteacher = new string[](numOfCOurse);\r\n\r\n        for(uint i = 0;i<numOfCOurse;i++ ){\r\n          coursesOfteacher[i] = t.teacher_courses[i].courseID;\r\n              \r\n        }\r\n\r\n        return (coursesOfteacher);\r\n    }\r\n\r\n    \r\n   \r\n    \r\n            \r\n    // function getStudentDetails(address studentWA) public view returns (address,string memory,string memory,uint256,uint256){\r\n        \r\n    //     /**\r\n    //      * @dev returning studentId,name,course,totalMarks and percentage of student to corresponding key\r\n    //      */ \r\n    //     return(students[studentId].studentId,students[studentId].name,students[studentId].course,students[studentId].totalMarks,students[studentId].percentage);\r\n    // }\r\n}",
  "sourcePath": "D:\\SEM_8\\FYP\\excelED\\contracts\\StudentRegister.sol",
  "compiler": {
    "name": "solc",
    "version": "0.5.16+commit.9c3226ce.Emscripten.clang"
  },
  "schemaVersion": "3.4.4",
  "updatedAt": "2022-02-26T15:24:03.883Z",
  "networkType": "ethereum",
  "devdoc": {
    "methods": {},
    "title": "StudentRegister"
  },
  "userdoc": {
    "methods": {},
    "notice": "StudentRegister contract is a contract to register the marks of a student and calculates his percentage"
  }
}