{
  "contractName": "StudentRegister",
  "abi": [
    {
      "constant": true,
      "inputs": [],
      "name": "courseName",
      "outputs": [
        {
          "internalType": "string",
          "name": "",
          "type": "string"
        }
      ],
      "payable": false,
      "stateMutability": "view",
      "type": "function"
    },
    {
      "constant": true,
      "inputs": [
        {
          "internalType": "string",
          "name": "",
          "type": "string"
        }
      ],
      "name": "courses",
      "outputs": [
        {
          "internalType": "string",
          "name": "courseID",
          "type": "string"
        },
        {
          "internalType": "address",
          "name": "teacherWA",
          "type": "address"
        },
        {
          "internalType": "uint256",
          "name": "studentCount",
          "type": "uint256"
        }
      ],
      "payable": false,
      "stateMutability": "view",
      "type": "function"
    },
    {
      "constant": true,
      "inputs": [],
      "name": "owner",
      "outputs": [
        {
          "internalType": "address",
          "name": "",
          "type": "address"
        }
      ],
      "payable": false,
      "stateMutability": "view",
      "type": "function"
    },
    {
      "constant": true,
      "inputs": [
        {
          "internalType": "address",
          "name": "",
          "type": "address"
        }
      ],
      "name": "students",
      "outputs": [
        {
          "internalType": "address",
          "name": "studentWA",
          "type": "address"
        },
        {
          "internalType": "string",
          "name": "studentID",
          "type": "string"
        }
      ],
      "payable": false,
      "stateMutability": "view",
      "type": "function"
    },
    {
      "constant": true,
      "inputs": [
        {
          "internalType": "address",
          "name": "",
          "type": "address"
        }
      ],
      "name": "teachers",
      "outputs": [
        {
          "internalType": "address",
          "name": "teacherWA",
          "type": "address"
        }
      ],
      "payable": false,
      "stateMutability": "view",
      "type": "function"
    },
    {
      "constant": false,
      "inputs": [
        {
          "internalType": "address",
          "name": "studentWA",
          "type": "address"
        },
        {
          "internalType": "string",
          "name": "studentID",
          "type": "string"
        }
      ],
      "name": "registerStudent",
      "outputs": [],
      "payable": false,
      "stateMutability": "nonpayable",
      "type": "function"
    },
    {
      "constant": false,
      "inputs": [
        {
          "internalType": "address",
          "name": "teacherWA",
          "type": "address"
        }
      ],
      "name": "registerTeacher",
      "outputs": [],
      "payable": false,
      "stateMutability": "nonpayable",
      "type": "function"
    },
    {
      "constant": false,
      "inputs": [
        {
          "internalType": "string",
          "name": "courseID",
          "type": "string"
        },
        {
          "internalType": "address",
          "name": "teacherWA",
          "type": "address"
        }
      ],
      "name": "createCourse",
      "outputs": [],
      "payable": false,
      "stateMutability": "nonpayable",
      "type": "function"
    },
    {
      "constant": false,
      "inputs": [
        {
          "internalType": "address",
          "name": "studentWA",
          "type": "address"
        },
        {
          "internalType": "string",
          "name": "courseID",
          "type": "string"
        }
      ],
      "name": "joinCourse",
      "outputs": [],
      "payable": false,
      "stateMutability": "nonpayable",
      "type": "function"
    },
    {
      "constant": true,
      "inputs": [
        {
          "internalType": "address",
          "name": "studentWA",
          "type": "address"
        },
        {
          "internalType": "string",
          "name": "courseID",
          "type": "string"
        }
      ],
      "name": "getStudentMarks",
      "outputs": [
        {
          "internalType": "uint256[]",
          "name": "",
          "type": "uint256[]"
        },
        {
          "internalType": "uint256[]",
          "name": "",
          "type": "uint256[]"
        },
        {
          "internalType": "uint256",
          "name": "",
          "type": "uint256"
        }
      ],
      "payable": false,
      "stateMutability": "view",
      "type": "function"
    },
    {
      "constant": false,
      "inputs": [
        {
          "internalType": "address",
          "name": "studentWA",
          "type": "address"
        },
        {
          "internalType": "string",
          "name": "courseID",
          "type": "string"
        },
        {
          "internalType": "string",
          "name": "mrksType",
          "type": "string"
        },
        {
          "internalType": "uint256",
          "name": "mrks",
          "type": "uint256"
        }
      ],
      "name": "inputMrks",
      "outputs": [],
      "payable": false,
      "stateMutability": "nonpayable",
      "type": "function"
    },
    {
      "constant": true,
      "inputs": [
        {
          "internalType": "address",
          "name": "studentWA",
          "type": "address"
        }
      ],
      "name": "getStudentCourses",
      "outputs": [
        {
          "internalType": "string[]",
          "name": "",
          "type": "string[]"
        }
      ],
      "payable": false,
      "stateMutability": "view",
      "type": "function"
    },
    {
      "constant": true,
      "inputs": [
        {
          "internalType": "address",
          "name": "teacherWA",
          "type": "address"
        }
      ],
      "name": "getTeacherCourse",
      "outputs": [
        {
          "internalType": "string[]",
          "name": "",
          "type": "string[]"
        }
      ],
      "payable": false,
      "stateMutability": "view",
      "type": "function"
    }
  ],
  "bytecode": "0x608060405260405180602001604052806000815250600690805190602001906200002b92919062000040565b503480156200003957600080fd5b50620000ef565b828054600181600116156101000203166002900490600052602060002090601f016020900481019282601f106200008357805160ff1916838001178555620000b4565b82800160010185558215620000b4579182015b82811115620000b357825182559160200191906001019062000096565b5b509050620000c39190620000c7565b5090565b620000ec91905b80821115620000e8576000816000905550600101620000ce565b5090565b90565b611d6880620000ff6000396000f3fe608060405234801561001057600080fd5b50600436106100cf5760003560e01c8063a6c807a91161008c578063d40761e411610066578063d40761e414610215578063d9d5878114610245578063f0a47f7814610261578063feb6562b14610291576100cf565b8063a6c807a9146101ac578063ada679ec146101dd578063ba4c2cde146101f9576100cf565b806316598342146100d4578063327cc30c146100f05780635d1c6dce146101225780637cb45881146101545780638da5cb5b146101705780639553de4e1461018e575b600080fd5b6100ee60048036036100e991908101906115f5565b6102c1565b005b61010a600480360361010591908101906115f5565b610365565b60405161011993929190611a69565b60405180910390f35b61013c600480360361013791908101906116dc565b6105e1565b60405161014b93929190611ad0565b60405180910390f35b61016e600480360361016991908101906115cc565b6106d9565b005b610178610763565b60405161018591906119fc565b60405180910390f35b610196610788565b6040516101a39190611aae565b60405180910390f35b6101c660048036036101c191908101906115cc565b610826565b6040516101d4929190611a17565b60405180910390f35b6101f760048036036101f2919081019061171d565b610902565b005b610213600480360361020e9190810190611649565b610aac565b005b61022f600480360361022a91908101906115cc565b610c4f565b60405161023c9190611a47565b60405180910390f35b61025f600480360361025a91908101906115f5565b610dd0565b005b61027b600480360361027691908101906115cc565b611085565b60405161028891906119fc565b60405180910390f35b6102ab60048036036102a691908101906115cc565b6110c3565b6040516102b89190611a47565b60405180910390f35b6000600160008473ffffffffffffffffffffffffffffffffffffffff1673ffffffffffffffffffffffffffffffffffffffff1681526020019081526020016000209050828160000160006101000a81548173ffffffffffffffffffffffffffffffffffffffff021916908373ffffffffffffffffffffffffffffffffffffffff1602179055508181600101908051906020019061035f929190611244565b50505050565b606080600080600160008773ffffffffffffffffffffffffffffffffffffffff1673ffffffffffffffffffffffffffffffffffffffff1681526020019081526020016000209050600080905060008090505b826002018054905081101561041e5786805190602001208360020182815481106103dd57fe5b90600052602060002090600402016000016040516103fb91906119ce565b604051809103902014156104115780915061041e565b80806001019150506103b7565b50600082600301828154811061043057fe5b9060005260206000209060030201600001805490509050600083600301838154811061045857fe5b90600052602060002090600302016001018054905090506060826040519080825280602002602001820160405280156104a05781602001602082028038833980820191505090505b5090506060826040519080825280602002602001820160405280156104d45781602001602082028038833980820191505090505b50905060008090505b84811015610540578660030186815481106104f457fe5b9060005260206000209060030201600001818154811061051057fe5b906000526020600020015483828151811061052757fe5b60200260200101818152505080806001019150506104dd565b5060008090505b838110156105aa5786600301868154811061055e57fe5b9060005260206000209060030201600101818154811061057a57fe5b906000526020600020015482828151811061059157fe5b6020026020010181815250508080600101915050610547565b5081818760030187815481106105bc57fe5b9060005260206000209060030201600201549850985098505050505050509250925092565b600381805160208101820180518482526020830160208501208183528095505050505050600091509050806000018054600181600116156101000203166002900480601f0160208091040260200160405190810160405280929190818152602001828054600181600116156101000203166002900480156106a35780601f10610678576101008083540402835291602001916106a3565b820191906000526020600020905b81548152906001019060200180831161068657829003601f168201915b5050505050908060010160009054906101000a900473ffffffffffffffffffffffffffffffffffffffff16908060030154905083565b6000600260008373ffffffffffffffffffffffffffffffffffffffff1673ffffffffffffffffffffffffffffffffffffffff1681526020019081526020016000209050818160000160006101000a81548173ffffffffffffffffffffffffffffffffffffffff021916908373ffffffffffffffffffffffffffffffffffffffff1602179055505050565b6000809054906101000a900473ffffffffffffffffffffffffffffffffffffffff1681565b60068054600181600116156101000203166002900480601f01602080910402602001604051908101604052809291908181526020018280546001816001161561010002031660029004801561081e5780601f106107f35761010080835404028352916020019161081e565b820191906000526020600020905b81548152906001019060200180831161080157829003601f168201915b505050505081565b60016020528060005260406000206000915090508060000160009054906101000a900473ffffffffffffffffffffffffffffffffffffffff1690806001018054600181600116156101000203166002900480601f0160208091040260200160405190810160405280929190818152602001828054600181600116156101000203166002900480156108f85780601f106108cd576101008083540402835291602001916108f8565b820191906000526020600020905b8154815290600101906020018083116108db57829003601f168201915b5050505050905082565b600060038360405161091491906119e5565b908152602001604051809103902090508281600001908051906020019061093c929190611244565b50818160010160006101000a81548173ffffffffffffffffffffffffffffffffffffffff021916908373ffffffffffffffffffffffffffffffffffffffff1602179055506000600260008473ffffffffffffffffffffffffffffffffffffffff1673ffffffffffffffffffffffffffffffffffffffff168152602001908152602001600020905080600101829080600181540180825580915050906001820390600052602060002090600402016000909192909190915060008201816000019080546001816001161561010002031660029004610a1a9291906112c4565b506001820160009054906101000a900473ffffffffffffffffffffffffffffffffffffffff168160010160006101000a81548173ffffffffffffffffffffffffffffffffffffffff021916908373ffffffffffffffffffffffffffffffffffffffff1602179055506002820181600201908054610a9892919061134b565b506003820154816003015550505050505050565b6000600160008673ffffffffffffffffffffffffffffffffffffffff1673ffffffffffffffffffffffffffffffffffffffff1681526020019081526020016000209050600080905060008090505b8260020180549050811015610b61578580519060200120836002018281548110610b2057fe5b9060005260206000209060040201600001604051610b3e91906119ce565b60405180910390201415610b5457809150610b61565b8080600101915050610afa565b506040518060400160405280600481526020017f7175697a000000000000000000000000000000000000000000000000000000008152508051906020012084805190602001201415610bfc57816003018181548110610bbc57fe5b9060005260206000209060030201600001839080600181540180825580915050906001820390600052602060002001600090919290919091505550610c47565b816003018181548110610c0b57fe5b90600052602060002090600302016001018390806001815401808255809150509060018203906000526020600020016000909192909190915055505b505050505050565b60606000600160008473ffffffffffffffffffffffffffffffffffffffff1673ffffffffffffffffffffffffffffffffffffffff1681526020019081526020016000209050600081600201805490509050606081604051908082528060200260200182016040528015610cd657816020015b6060815260200190600190039081610cc15790505b50905060008090505b82811015610dc457836002018181548110610cf657fe5b90600052602060002090600402016000018054600181600116156101000203166002900480601f016020809104026020016040519081016040528092919081815260200182805460018160011615610100020316600290048015610d9b5780601f10610d7057610100808354040283529160200191610d9b565b820191906000526020600020905b815481529060010190602001808311610d7e57829003601f168201915b5050505050828281518110610dac57fe5b60200260200101819052508080600101915050610cdf565b50809350505050919050565b6000600382604051610de291906119e5565b90815260200160405180910390209050806002018390806001815401808255809150509060018203906000526020600020016000909192909190916101000a81548173ffffffffffffffffffffffffffffffffffffffff021916908373ffffffffffffffffffffffffffffffffffffffff1602179055505080600301600081548092919060010191905055506000600160008573ffffffffffffffffffffffffffffffffffffffff1673ffffffffffffffffffffffffffffffffffffffff168152602001908152602001600020905080600201829080600181540180825580915050906001820390600052602060002090600402016000909192909190915060008201816000019080546001816001161561010002031660029004610f089291906112c4565b506001820160009054906101000a900473ffffffffffffffffffffffffffffffffffffffff168160010160006101000a81548173ffffffffffffffffffffffffffffffffffffffff021916908373ffffffffffffffffffffffffffffffffffffffff1602179055506002820181600201908054610f8692919061134b565b506003820154816003015550505080600201600081548110610fa457fe5b906000526020600020906004020160000160069080546001816001161561010002031660029004610fd692919061139d565b506060806000809050610fe7611424565b60405180606001604052808581526020018481526020018381525090508460030181908060018154018082558091505090600182039060005260206000209060030201600090919290919091506000820151816000019080519060200190611050929190611445565b50602082015181600101908051906020019061106d929190611445565b50604082015181600201555050505050505050505050565b60026020528060005260406000206000915090508060000160009054906101000a900473ffffffffffffffffffffffffffffffffffffffff16905081565b60606000600260008473ffffffffffffffffffffffffffffffffffffffff1673ffffffffffffffffffffffffffffffffffffffff168152602001908152602001600020905060008160010180549050905060608160405190808252806020026020018201604052801561114a57816020015b60608152602001906001900390816111355790505b50905060008090505b828110156112385783600101818154811061116a57fe5b90600052602060002090600402016000018054600181600116156101000203166002900480601f01602080910402602001604051908101604052809291908181526020018280546001816001161561010002031660029004801561120f5780601f106111e45761010080835404028352916020019161120f565b820191906000526020600020905b8154815290600101906020018083116111f257829003601f168201915b505050505082828151811061122057fe5b60200260200101819052508080600101915050611153565b50809350505050919050565b828054600181600116156101000203166002900490600052602060002090601f016020900481019282601f1061128557805160ff19168380011785556112b3565b828001600101855582156112b3579182015b828111156112b2578251825591602001919060010190611297565b5b5090506112c09190611492565b5090565b828054600181600116156101000203166002900490600052602060002090601f016020900481019282601f106112fd578054855561133a565b8280016001018555821561133a57600052602060002091601f016020900482015b8281111561133957825482559160010191906001019061131e565b5b5090506113479190611492565b5090565b82805482825590600052602060002090810192821561138c5760005260206000209182015b8281111561138b578254825591600101919060010190611370565b5b50905061139991906114b7565b5090565b828054600181600116156101000203166002900490600052602060002090601f016020900481019282601f106113d65780548555611413565b8280016001018555821561141357600052602060002091601f016020900482015b828111156114125782548255916001019190600101906113f7565b5b5090506114209190611492565b5090565b60405180606001604052806060815260200160608152602001600081525090565b828054828255906000526020600020908101928215611481579160200282015b82811115611480578251825591602001919060010190611465565b5b50905061148e9190611492565b5090565b6114b491905b808211156114b0576000816000905550600101611498565b5090565b90565b6114f791905b808211156114f357600081816101000a81549073ffffffffffffffffffffffffffffffffffffffff0219169055506001016114bd565b5090565b90565b60008135905061150981611cf7565b92915050565b600082601f83011261152057600080fd5b813561153361152e82611b3b565b611b0e565b9150808252602083016020830185838301111561154f57600080fd5b61155a838284611ca4565b50505092915050565b600082601f83011261157457600080fd5b813561158761158282611b67565b611b0e565b915080825260208301602083018583830111156115a357600080fd5b6115ae838284611ca4565b50505092915050565b6000813590506115c681611d0e565b92915050565b6000602082840312156115de57600080fd5b60006115ec848285016114fa565b91505092915050565b6000806040838503121561160857600080fd5b6000611616858286016114fa565b925050602083013567ffffffffffffffff81111561163357600080fd5b61163f85828601611563565b9150509250929050565b6000806000806080858703121561165f57600080fd5b600061166d878288016114fa565b945050602085013567ffffffffffffffff81111561168a57600080fd5b61169687828801611563565b935050604085013567ffffffffffffffff8111156116b357600080fd5b6116bf87828801611563565b92505060606116d0878288016115b7565b91505092959194509250565b6000602082840312156116ee57600080fd5b600082013567ffffffffffffffff81111561170857600080fd5b6117148482850161150f565b91505092915050565b6000806040838503121561173057600080fd5b600083013567ffffffffffffffff81111561174a57600080fd5b61175685828601611563565b9250506020611767858286016114fa565b9150509250929050565b600061177d838361193e565b905092915050565b600061179183836119b0565b60208301905092915050565b6117a681611c68565b82525050565b60006117b782611bc8565b6117c18185611c0e565b9350836020820285016117d385611b93565b8060005b8581101561180f57848403895281516117f08582611771565b94506117fb83611bf4565b925060208a019950506001810190506117d7565b50829750879550505050505092915050565b600061182c82611bd3565b6118368185611c1f565b935061184183611ba3565b8060005b838110156118725781516118598882611785565b975061186483611c01565b925050600181019050611845565b5085935050505092915050565b60008154600181166000811461189c57600181146118c157611905565b607f60028304166118ad8187611c30565b955060ff1983168652808601935050611905565b600282046118cf8187611c30565b95506118da85611bb3565b60005b828110156118fc578154818901526001820191506020810190506118dd565b82880195505050505b505092915050565b600061191882611be9565b6119228185611c5d565b9350611932818560208601611cb3565b80840191505092915050565b600061194982611bde565b6119538185611c3b565b9350611963818560208601611cb3565b61196c81611ce6565b840191505092915050565b600061198282611bde565b61198c8185611c4c565b935061199c818560208601611cb3565b6119a581611ce6565b840191505092915050565b6119b981611c9a565b82525050565b6119c881611c9a565b82525050565b60006119da828461187f565b915081905092915050565b60006119f1828461190d565b915081905092915050565b6000602082019050611a11600083018461179d565b92915050565b6000604082019050611a2c600083018561179d565b8181036020830152611a3e8184611977565b90509392505050565b60006020820190508181036000830152611a6181846117ac565b905092915050565b60006060820190508181036000830152611a838186611821565b90508181036020830152611a978185611821565b9050611aa660408301846119bf565b949350505050565b60006020820190508181036000830152611ac88184611977565b905092915050565b60006060820190508181036000830152611aea8186611977565b9050611af9602083018561179d565b611b0660408301846119bf565b949350505050565b6000604051905081810181811067ffffffffffffffff82111715611b3157600080fd5b8060405250919050565b600067ffffffffffffffff821115611b5257600080fd5b601f19601f8301169050602081019050919050565b600067ffffffffffffffff821115611b7e57600080fd5b601f19601f8301169050602081019050919050565b6000819050602082019050919050565b6000819050602082019050919050565b60008190508160005260206000209050919050565b600081519050919050565b600081519050919050565b600081519050919050565b600081519050919050565b6000602082019050919050565b6000602082019050919050565b600082825260208201905092915050565b600082825260208201905092915050565b600081905092915050565b600082825260208201905092915050565b600082825260208201905092915050565b600081905092915050565b6000611c7382611c7a565b9050919050565b600073ffffffffffffffffffffffffffffffffffffffff82169050919050565b6000819050919050565b82818337600083830152505050565b60005b83811015611cd1578082015181840152602081019050611cb6565b83811115611ce0576000848401525b50505050565b6000601f19601f8301169050919050565b611d0081611c68565b8114611d0b57600080fd5b50565b611d1781611c9a565b8114611d2257600080fd5b5056fea365627a7a72315820082d2a4b7ed226680d9b0067d8186170df4063356971914ef45584ec4c22eb3e6c6578706572696d656e74616cf564736f6c63430005100040",
  "source": "pragma solidity ^0.5.16;\r\npragma experimental ABIEncoderV2;\r\n\r\n\r\n/**\r\n * @title StudentRegister\r\n * @notice StudentRegister contract is a contract to register the marks of a student and calculates his percentage\r\n*/\r\n\r\ncontract StudentRegister{\r\n\r\n/**\r\n * @dev owner is a state variable\r\n */\r\n    address public owner;\r\n  \r\n  /**\r\n   * @dev mapping address as key to struct student with mapping name students\r\n   */\r\n    \r\n    /**\r\n     * @dev assigning the contract deployer as the owner\r\n     */\r\n     \r\n    /**\r\n     * @dev a modifier onlyOwner is created to limit the access to function register to contract deployer\r\n     */\r\n   \r\n    struct course{\r\n        string courseID;\r\n        address teacherWA;\r\n        address[] students;\r\n        uint studentCount;\r\n        \r\n    }\r\n    struct mark{\r\n        uint[] quiz;\r\n        uint[] assignment;\r\n        uint attendance;\r\n\r\n\r\n    }\r\n    /**\r\n     * @dev a struct student is defined\r\n     */\r\n    struct student{\r\n        \r\n        address studentWA;\r\n        string studentID;\r\n        course[] student_courses;\r\n        mark[] student_marks;\r\n        \r\n        \r\n    }\r\n\r\n    struct teacher{\r\n        address teacherWA;\r\n        course[] teacher_courses;\r\n        \r\n\r\n\r\n    }\r\n    // global mapping \r\n    mapping (address=>student) public students;\r\n    mapping(address=>teacher) public teachers;\r\n    mapping(string=>course) public  courses;\r\n    \r\n    uint numStudents;\r\n    //only for registering a new student\r\n    mapping(uint=>student) newStudents;    \r\n    \r\n    function registerStudent(address studentWA,string memory studentID) public  {\r\n       student storage s= students[studentWA];\r\n       s.studentWA=studentWA;\r\n       s.studentID=studentID;\r\n    }\r\n    function registerTeacher(address teacherWA) public  {\r\n    teacher storage s= teachers[teacherWA];\r\n       s.teacherWA=teacherWA;\r\n    \r\n    \r\n        \r\n        }\r\n\r\n    function createCourse(string memory courseID,address teacherWA) public  {\r\n\r\n\r\n        course storage c= courses[courseID];\r\n        c.courseID=courseID;\r\n        c.teacherWA=teacherWA;\r\n        teacher storage t=teachers[teacherWA];\r\n        t.teacher_courses.push(c);\r\n        // //generate and return invite code \r\n\r\n    }\r\n    string public courseName = \"\";\r\n    function joinCourse(address studentWA,string memory courseID) public{\r\n        course storage c= courses[courseID];\r\n        c.students.push(studentWA);\r\n        c.studentCount++;\r\n        student storage s= students[studentWA];\r\n        s.student_courses.push(c);\r\n        courseName=s.student_courses[0].courseID;\r\n        uint[] memory myquiz;\r\n        uint[] memory assign;\r\n        uint attendance = 0;\r\n        mark memory myMark = mark(myquiz,assign,attendance);\r\n        s.student_marks.push(myMark);\r\n        \r\n\r\n\r\n    } \r\n    \r\n    \r\n    \r\n     \r\n    function getStudentMarks(address studentWA, string memory courseID) public view returns(uint[] memory,uint[] memory,uint) {\r\n        \r\n        student storage s = students[studentWA];        \r\n        uint index = 0;\r\n        for(uint i = 0;i<s.student_courses.length;i++ )\r\n        {\r\n\r\n            if(keccak256(bytes(s.student_courses[i].courseID)) == keccak256(bytes(courseID))) {\r\n               index = i;\r\n               \r\n               break;\r\n           }\r\n\r\n        }\r\n        uint quizLen= s.student_marks[index].quiz.length;\r\n        uint assignLen = s.student_marks[index].assignment.length;\r\n        uint[] memory quizMrk = new uint[](quizLen);\r\n        uint[] memory assignMrk = new uint[](assignLen);\r\n\r\n        for(uint i = 0; i<quizLen;i++){\r\n            quizMrk[i]=s.student_marks[index].quiz[i];  \r\n        }\r\n\r\n        for(uint i = 0; i<assignLen;i++){\r\n            assignMrk[i]=s.student_marks[index].assignment[i];  \r\n        }\r\n\r\n        \r\n        return(quizMrk ,assignMrk , s.student_marks[index].attendance);\r\n    }\r\n    \r\n    function inputMrks(address studentWA, string memory courseID, string memory mrksType,uint mrks) public{\r\n        student storage s = students[studentWA];\r\n        \r\n        uint indexi = 0;\r\n        for(uint i = 0;i<s.student_courses.length;i++ ){\r\n           if(keccak256(bytes(s.student_courses[i].courseID)) == keccak256(bytes(courseID))) {\r\n               indexi = i;\r\n               break;\r\n           }\r\n        }\r\n\r\n        if(keccak256(bytes(mrksType)) == keccak256(bytes(\"quiz\"))){\r\n            s.student_marks[indexi].quiz.push(mrks);\r\n            \r\n        }\r\n\r\n        else{\r\n            s.student_marks[indexi].assignment.push(mrks);\r\n        }\r\n\r\n    }\r\n\r\n    function getStudentCourses(address studentWA) public view returns(string[] memory){\r\n        \r\n        student storage s = students[studentWA];\r\n        uint numOfCOurse = s.student_courses.length;\r\n        string[] memory coursesOfStudent = new string[](numOfCOurse);\r\n\r\n        for(uint i = 0;i<numOfCOurse;i++ ){\r\n          coursesOfStudent[i] = s.student_courses[i].courseID;\r\n              \r\n        }\r\n\r\n        return (coursesOfStudent);\r\n\r\n    }\r\n\r\n    function getTeacherCourse(address teacherWA) public view returns(string[] memory){\r\n\r\n        teacher storage t = teachers[teacherWA];\r\n        uint numOfCOurse = t.teacher_courses.length;\r\n        string[] memory coursesOfteacher = new string[](numOfCOurse);\r\n\r\n        for(uint i = 0;i<numOfCOurse;i++ ){\r\n          coursesOfteacher[i] = t.teacher_courses[i].courseID;\r\n              \r\n        }\r\n\r\n        return (coursesOfteacher);\r\n    }\r\n\r\n    \r\n   \r\n    \r\n            \r\n    // function getStudentDetails(address studentWA) public view returns (address,string memory,string memory,uint256,uint256){\r\n        \r\n    //     /**\r\n    //      * @dev returning studentId,name,course,totalMarks and percentage of student to corresponding key\r\n    //      */ \r\n    //     return(students[studentId].studentId,students[studentId].name,students[studentId].course,students[studentId].totalMarks,students[studentId].percentage);\r\n    // }\r\n}",
  "sourcePath": "D:\\SEM_8\\FYP\\excelED\\contracts\\StudentRegister.sol",
  "compiler": {
    "name": "solc",
    "version": "0.5.16+commit.9c3226ce.Emscripten.clang"
  },
  "schemaVersion": "3.4.4",
  "updatedAt": "2022-02-22T05:18:07.991Z",
  "networkType": "ethereum",
  "devdoc": {
    "methods": {},
    "title": "StudentRegister"
  },
  "userdoc": {
    "methods": {},
    "notice": "StudentRegister contract is a contract to register the marks of a student and calculates his percentage"
  }
}