{
  "contractName": "StudentRegister",
  "abi": [
    {
      "constant": true,
      "inputs": [
        {
          "internalType": "string",
          "name": "",
          "type": "string"
        }
      ],
      "name": "courses",
      "outputs": [
        {
          "internalType": "string",
          "name": "courseID",
          "type": "string"
        },
        {
          "internalType": "address",
          "name": "teacherWA",
          "type": "address"
        },
        {
          "internalType": "uint256",
          "name": "studentCount",
          "type": "uint256"
        }
      ],
      "payable": false,
      "stateMutability": "view",
      "type": "function"
    },
    {
      "constant": true,
      "inputs": [],
      "name": "owner",
      "outputs": [
        {
          "internalType": "address",
          "name": "",
          "type": "address"
        }
      ],
      "payable": false,
      "stateMutability": "view",
      "type": "function"
    },
    {
      "constant": true,
      "inputs": [
        {
          "internalType": "address",
          "name": "",
          "type": "address"
        }
      ],
      "name": "students",
      "outputs": [
        {
          "internalType": "address",
          "name": "studentWA",
          "type": "address"
        },
        {
          "internalType": "string",
          "name": "studentID",
          "type": "string"
        }
      ],
      "payable": false,
      "stateMutability": "view",
      "type": "function"
    },
    {
      "constant": true,
      "inputs": [
        {
          "internalType": "address",
          "name": "",
          "type": "address"
        }
      ],
      "name": "teachers",
      "outputs": [
        {
          "internalType": "address",
          "name": "teacherWA",
          "type": "address"
        }
      ],
      "payable": false,
      "stateMutability": "view",
      "type": "function"
    },
    {
      "constant": false,
      "inputs": [
        {
          "internalType": "address",
          "name": "studentWA",
          "type": "address"
        },
        {
          "internalType": "string",
          "name": "studentID",
          "type": "string"
        }
      ],
      "name": "registerStudent",
      "outputs": [],
      "payable": false,
      "stateMutability": "nonpayable",
      "type": "function"
    },
    {
      "constant": false,
      "inputs": [
        {
          "internalType": "address",
          "name": "teacherWA",
          "type": "address"
        }
      ],
      "name": "registerTeacher",
      "outputs": [],
      "payable": false,
      "stateMutability": "nonpayable",
      "type": "function"
    },
    {
      "constant": false,
      "inputs": [
        {
          "internalType": "string",
          "name": "courseID",
          "type": "string"
        },
        {
          "internalType": "address",
          "name": "teacherWA",
          "type": "address"
        }
      ],
      "name": "createCourse",
      "outputs": [],
      "payable": false,
      "stateMutability": "nonpayable",
      "type": "function"
    },
    {
      "constant": false,
      "inputs": [
        {
          "internalType": "address",
          "name": "studentWA",
          "type": "address"
        },
        {
          "internalType": "string",
          "name": "courseID",
          "type": "string"
        }
      ],
      "name": "joinCourse",
      "outputs": [],
      "payable": false,
      "stateMutability": "nonpayable",
      "type": "function"
    }
  ],
  "bytecode": "0x608060405234801561001057600080fd5b50610fc3806100206000396000f3fe608060405234801561001057600080fd5b50600436106100885760003560e01c8063a6c807a91161005b578063a6c807a914610364578063ada679ec14610454578063d9d587811461052f578063f0a47f781461060a57610088565b8063165983421461008d5780635d1c6dce146101685780637cb45881146102d65780638da5cb5b1461031a575b600080fd5b610166600480360360408110156100a357600080fd5b81019080803573ffffffffffffffffffffffffffffffffffffffff169060200190929190803590602001906401000000008111156100e057600080fd5b8201836020820111156100f257600080fd5b8035906020019184600183028401116401000000008311171561011457600080fd5b91908080601f016020809104026020016040519081016040528093929190818152602001838380828437600081840152601f19601f82011690508083019250505050505050919291929050505061068e565b005b6102216004803603602081101561017e57600080fd5b810190808035906020019064010000000081111561019b57600080fd5b8201836020820111156101ad57600080fd5b803590602001918460018302840111640100000000831117156101cf57600080fd5b91908080601f016020809104026020016040519081016040528093929190818152602001838380828437600081840152601f19601f820116905080830192505050505050509192919290505050610732565b60405180806020018473ffffffffffffffffffffffffffffffffffffffff1673ffffffffffffffffffffffffffffffffffffffff168152602001838152602001828103825285818151815260200191508051906020019080838360005b8381101561029957808201518184015260208101905061027e565b50505050905090810190601f1680156102c65780820380516001836020036101000a031916815260200191505b5094505050505060405180910390f35b610318600480360360208110156102ec57600080fd5b81019080803573ffffffffffffffffffffffffffffffffffffffff16906020019092919050505061082a565b005b6103226108b4565b604051808273ffffffffffffffffffffffffffffffffffffffff1673ffffffffffffffffffffffffffffffffffffffff16815260200191505060405180910390f35b6103a66004803603602081101561037a57600080fd5b81019080803573ffffffffffffffffffffffffffffffffffffffff1690602001909291905050506108d9565b604051808373ffffffffffffffffffffffffffffffffffffffff1673ffffffffffffffffffffffffffffffffffffffff16815260200180602001828103825283818151815260200191508051906020019080838360005b838110156104185780820151818401526020810190506103fd565b50505050905090810190601f1680156104455780820380516001836020036101000a031916815260200191505b50935050505060405180910390f35b61052d6004803603604081101561046a57600080fd5b810190808035906020019064010000000081111561048757600080fd5b82018360208201111561049957600080fd5b803590602001918460018302840111640100000000831117156104bb57600080fd5b91908080601f016020809104026020016040519081016040528093929190818152602001838380828437600081840152601f19601f820116905080830192505050505050509192919290803573ffffffffffffffffffffffffffffffffffffffff1690602001909291905050506109b5565b005b6106086004803603604081101561054557600080fd5b81019080803573ffffffffffffffffffffffffffffffffffffffff1690602001909291908035906020019064010000000081111561058257600080fd5b82018360208201111561059457600080fd5b803590602001918460018302840111640100000000831117156105b657600080fd5b91908080601f016020809104026020016040519081016040528093929190818152602001838380828437600081840152601f19601f820116905080830192505050505050509192919290505050610baa565b005b61064c6004803603602081101561062057600080fd5b81019080803573ffffffffffffffffffffffffffffffffffffffff169060200190929190505050610da4565b604051808273ffffffffffffffffffffffffffffffffffffffff1673ffffffffffffffffffffffffffffffffffffffff16815260200191505060405180910390f35b6000600160008473ffffffffffffffffffffffffffffffffffffffff1673ffffffffffffffffffffffffffffffffffffffff1681526020019081526020016000209050828160000160006101000a81548173ffffffffffffffffffffffffffffffffffffffff021916908373ffffffffffffffffffffffffffffffffffffffff1602179055508181600101908051906020019061072c929190610de2565b50505050565b600381805160208101820180518482526020830160208501208183528095505050505050600091509050806000018054600181600116156101000203166002900480601f0160208091040260200160405190810160405280929190818152602001828054600181600116156101000203166002900480156107f45780601f106107c9576101008083540402835291602001916107f4565b820191906000526020600020905b8154815290600101906020018083116107d757829003601f168201915b5050505050908060010160009054906101000a900473ffffffffffffffffffffffffffffffffffffffff16908060560154905083565b6000600260008373ffffffffffffffffffffffffffffffffffffffff1673ffffffffffffffffffffffffffffffffffffffff1681526020019081526020016000209050818160000160006101000a81548173ffffffffffffffffffffffffffffffffffffffff021916908373ffffffffffffffffffffffffffffffffffffffff1602179055505050565b6000809054906101000a900473ffffffffffffffffffffffffffffffffffffffff1681565b60016020528060005260406000206000915090508060000160009054906101000a900473ffffffffffffffffffffffffffffffffffffffff1690806001018054600181600116156101000203166002900480601f0160208091040260200160405190810160405280929190818152602001828054600181600116156101000203166002900480156109ab5780601f10610980576101008083540402835291602001916109ab565b820191906000526020600020905b81548152906001019060200180831161098e57829003601f168201915b5050505050905082565b60006003836040518082805190602001908083835b602083106109ed57805182526020820191506020810190506020830392506109ca565b6001836020036101000a0380198251168184511680821785525050505050509050019150509081526020016040518091039020905082816000019080519060200190610a3a929190610de2565b50818160010160006101000a81548173ffffffffffffffffffffffffffffffffffffffff021916908373ffffffffffffffffffffffffffffffffffffffff1602179055506000600260008473ffffffffffffffffffffffffffffffffffffffff1673ffffffffffffffffffffffffffffffffffffffff168152602001908152602001600020905080600101829080600181540180825580915050906001820390600052602060002090605702016000909192909190915060008201816000019080546001816001161561010002031660029004610b18929190610e62565b506001820160009054906101000a900473ffffffffffffffffffffffffffffffffffffffff168160010160006101000a81548173ffffffffffffffffffffffffffffffffffffffff021916908373ffffffffffffffffffffffffffffffffffffffff1602179055506002820181600201906054610b96929190610ee9565b506056820154816056015550505050505050565b60006003826040518082805190602001908083835b60208310610be25780518252602082019150602081019050602083039250610bbf565b6001836020036101000a0380198251168184511680821785525050505050509050019150509081526020016040518091039020905082816002018260560160008154809291906001019190505560548110610c3957fe5b0160006101000a81548173ffffffffffffffffffffffffffffffffffffffff021916908373ffffffffffffffffffffffffffffffffffffffff1602179055506000600160008573ffffffffffffffffffffffffffffffffffffffff1673ffffffffffffffffffffffffffffffffffffffff168152602001908152602001600020905080600201829080600181540180825580915050906001820390600052602060002090605702016000909192909190915060008201816000019080546001816001161561010002031660029004610d12929190610e62565b506001820160009054906101000a900473ffffffffffffffffffffffffffffffffffffffff168160010160006101000a81548173ffffffffffffffffffffffffffffffffffffffff021916908373ffffffffffffffffffffffffffffffffffffffff1602179055506002820181600201906054610d90929190610ee9565b506056820154816056015550505050505050565b60026020528060005260406000206000915090508060000160009054906101000a900473ffffffffffffffffffffffffffffffffffffffff16905081565b828054600181600116156101000203166002900490600052602060002090601f016020900481019282601f10610e2357805160ff1916838001178555610e51565b82800160010185558215610e51579182015b82811115610e50578251825591602001919060010190610e35565b5b509050610e5e9190610f26565b5090565b828054600181600116156101000203166002900490600052602060002090601f016020900481019282601f10610e9b5780548555610ed8565b82800160010185558215610ed857600052602060002091601f016020900482015b82811115610ed7578254825591600101919060010190610ebc565b5b509050610ee59190610f26565b5090565b8260548101928215610f15579182015b82811115610f14578254825591600101919060010190610ef9565b5b509050610f229190610f4b565b5090565b610f4891905b80821115610f44576000816000905550600101610f2c565b5090565b90565b610f8b91905b80821115610f8757600081816101000a81549073ffffffffffffffffffffffffffffffffffffffff021916905550600101610f51565b5090565b9056fea265627a7a72315820937e4e9e84f6b931794345ad38025ba3e6c0afc37978969f26731d6b9d87c4d864736f6c63430005100032",
  "source": "pragma solidity ^0.5.16;\r\n\r\n\r\n/**\r\n * @title StudentRegister\r\n * @notice StudentRegister contract is a contract to register the marks of a student and calculates his percentage\r\n*/\r\n\r\ncontract StudentRegister{\r\n\r\n/**\r\n * @dev owner is a state variable\r\n */\r\n    address public owner;\r\n  \r\n  /**\r\n   * @dev mapping address as key to struct student with mapping name students\r\n   */\r\n    \r\n    /**\r\n     * @dev assigning the contract deployer as the owner\r\n     */\r\n     \r\n    /**\r\n     * @dev a modifier onlyOwner is created to limit the access to function register to contract deployer\r\n     */\r\n   \r\n    struct course{\r\n        string courseID;\r\n        address teacherWA;\r\n        address[84] students;\r\n        uint studentCount;\r\n        \r\n    }\r\n    struct mark{\r\n        uint[10] quiz;\r\n        uint[10] assignment;\r\n        uint attendance;\r\n\r\n\r\n    }\r\n    /**\r\n     * @dev a struct student is defined\r\n     */\r\n    struct student{\r\n        \r\n        address studentWA;\r\n        string studentID;\r\n        course[] student_courses;\r\n        mark[] student_marks;\r\n        \r\n        \r\n    }\r\n\r\n    struct teacher{\r\n        address teacherWA;\r\n        course[] teacher_courses;\r\n        \r\n\r\n\r\n    }\r\n    // global mapping \r\n    mapping (address=>student) public students;\r\n    mapping(address=>teacher) public teachers;\r\n    mapping(string=>course) public  courses;\r\n    uint numStudents;\r\n    //only for registering a new student\r\n    mapping(uint=>student) newStudents;    \r\n    \r\n    function registerStudent(address studentWA,string memory studentID) public  {\r\n       student storage s= students[studentWA];\r\n       s.studentWA=studentWA;\r\n       s.studentID=studentID;\r\n    }\r\n    function registerTeacher(address teacherWA) public  {\r\n    teacher storage s= teachers[teacherWA];\r\n       s.teacherWA=teacherWA;\r\n    \r\n    \r\n        \r\n        }\r\n\r\n    function createCourse(string memory courseID,address teacherWA) public  {\r\n\r\n\r\n        course storage c= courses[courseID];\r\n        c.courseID=courseID;\r\n        c.teacherWA=teacherWA;\r\n        teacher storage t=teachers[teacherWA];\r\n        t.teacher_courses.push(c);\r\n        // //generate and return invite code \r\n\r\n    }\r\n\r\n    function joinCourse(address studentWA,string memory  courseID) public{\r\n        course storage c= courses[courseID];\r\n        c.students[c.studentCount++]=studentWA;\r\n        student storage s= students[studentWA];\r\n        s.student_courses.push(c);\r\n\r\n\r\n    } \r\n   \r\n    \r\n            \r\n    // function getStudentDetails(address studentWA) public view returns (address,string memory,string memory,uint256,uint256){\r\n        \r\n    //     /**\r\n    //      * @dev returning studentId,name,course,totalMarks and percentage of student to corresponding key\r\n    //      */ \r\n    //     return(students[studentId].studentId,students[studentId].name,students[studentId].course,students[studentId].totalMarks,students[studentId].percentage);\r\n    // }\r\n}",
  "sourcePath": "D:\\SEM_8\\FYP\\excelED\\contracts\\StudentRegister.sol",
  "compiler": {
    "name": "solc",
    "version": "0.5.16+commit.9c3226ce.Emscripten.clang"
  },
  "schemaVersion": "3.4.4",
  "updatedAt": "2022-02-09T12:29:50.127Z",
  "devdoc": {
    "methods": {},
    "title": "StudentRegister"
  },
  "userdoc": {
    "methods": {},
    "notice": "StudentRegister contract is a contract to register the marks of a student and calculates his percentage"
  }
}